:020000040800F2
:10000000D01E00204D0100086F270008A72500081A
:100010006D27000829040008916400080000000012
:10002000000000000000000000000000914C0008EB
:100030004305000800000000DD2D00080551000800
:1000400067010008670100085152000867010008B5
:1000500067010008670100086701000867010008E0
:1000600067010008670100086701000871040008C3
:1000700067010008670100086701000879040008AB
:1000800067010008670100086701000867010008B0
:1000900067010008670100086701000867010008A0
:1000A0006701000867010008670100086701000890
:1000B0006701000867010008670100086701000880
:1000C0006701000867010008670100086701000870
:1000D000915F0008995F0008670100086701000848
:1000E000670100087D050008053000086701000869
:1000F0006701000867010008670100086701000840
:100100006701000867010008214300086701000833
:10011000670100086701000867010008670100081F
:10012000670100086701000867010008670100080F
:100130006701000867010008DFF80CD000F0E2F862
:100140000048004711650008D01E0020064880477F
:1001500006480047FEE7FEE7FEE7FEE7FEE7FEE7AC
:10016000FEE7FEE7FEE7FEE74D5200083901000812
:100170002DE9F05F0546002092469B4688460646DC
:10018000814640241BE0284641464746224600F06F
:10019000A8F853465A46C01A914110D31146184642
:1001A000224600F08FF82D1A67EB01084F462246D1
:1001B0000120002100F086F817EB00094E41201EB7
:1001C000A4F10104DFDC484631462A464346BDE837
:1001D000F09F10B5431A934209D28318881803E0A0
:1001E00010F8011D03F8011D521EF9D210BD40EA9E
:1001F00001039B0703D009E008C9121F08C0042AA5
:10020000FAD203E011F8013B00F8013B521EF9D28B
:1002100010BDD2B201E000F8012B491EFBD270479D
:100220000022F6E710B513460A4604461946FFF7C2
:10023000F0FF204610BD10B5044604E00B7800F82E
:10024000013B03B1491C521EF8D2204610BDCAB270
:10025000401E10F8011F8A4202D00029F9D1002067
:100260007047421C10F8011B0029FBD1801A70470F
:1002700030B504460020034600E05B1C934203D2E5
:10028000E05CCD5C401BF8D030BD30B505460020A9
:10029000034600E05B1C934205D2EC5CC85C201A6C
:1002A00001D1002CF6D130BD10B54843044606F00C
:1002B000F7FB002805D00021002C02D0641E015558
:1002C000FAE710BD202A04DB203A00FA02F10020F0
:1002D00070479140C2F1200320FA03F31943904084
:1002E0007047202A04DB203A21FA02F000217047EF
:1002F00021FA02F3D040C2F120029140084319468E
:1003000070470000064C074D06E0E06840F001032E
:1003100094E8070098471034AC42F6D3FFF710FF7B
:10032000D06D0008F06D000870B586B00446002559
:1003300002200226059502F053F90120CDE903566B
:100340000290094830F81450084850F824400195AC
:1003500001A9204600F092FB20462946002200F029
:1003600051FC002006B070BD2C6C0008346C0008F5
:10037000032819D8F8B50D4DC600264C274F082183
:1003800005F58070F040C2B22046B84708481021F9
:10039000F040C2B22046B84725FA06F02021C2B28A
:1003A0002046B847BDE8F840002070470000010132
:1003B000000101000020704770B586B0002405944C
:1003C00002F01AF90320144ECDE903400120114C2C
:1003D00002901020019001AD20462946B047202010
:1003E000294601902046B047082029460190204622
:1003F000B0470A4D204620210022A8472046102160
:100400000022A847204608210022A847002006B065
:1004100070BD00BF000800487D0A0008050C0008F8
:100420000120704701207047FEE700007CB50E4CAC
:1004300005462046FFF715FFC0F596762846FFF7DC
:1004400010FF864205D309492878CA88A054501C59
:10045000C880064C0120A070684604F055FEDDE916
:100460000001C4E902017CBD040700203000002027
:10047000064800F07DB900BF80B5044800F078F967
:100480000348BDE8804000F073B900BF9008002029
:100490003008002010B51049436C104C01F1640283
:1004A00023F00303C2640268A24238BF04F57E71E0
:1004B0001944142381646FF00701A24251FA82F1BA
:1004C000B1FBF3F128BF0731012201F01F0102FA4D
:1004D00001F1016510BD00BF1C0802400804024084
:1004E00010B5436807490124543003F07F0301F13C
:1004F0004002013B01EB830103F0030304FA03F321
:100500000EC010BD00090240F0B500F14C0670CEDF
:10051000656016B1D0E91645656004688568D0E964
:100520001060012700F01C00102D07FA00F0706029
:100530000846636008BF1046A06008BF0A46E26034
:10054000F0BD704710B58278B2B1013A0A248270CA
:100550000278531CB3FBF4F404EB8404A3EB4403D0
:10056000037000EB0220021D084611464FF4807212
:10057000FFF72FFE012010BD002010BD4FF40050EA
:1005800000F072BA83B078B505AC85780EC40A2D38
:1005900001D1002015E005A9467804464FF4807289
:1005A00000EB06200430FFF714FE681C0A21A0703F
:1005B000701CB0FBF1F101EB8101A0EB4100607018
:1005C0000120BDE8784003B07047FEE750B3B0B5F6
:1005D00090F82510022927D1016800F140041CCCB5
:1005E0000D6803F01C0325F00E050D60256825F449
:1005F000807525600C6824F001040C60012101FA6B
:1006000003F35360D0E913235360426D32B1136892
:1006100023F480731360D0E91623536080F825100B
:10062000002104E0012107E00421C163012100222F
:1006300080F82420BDE8B04008467047B0B590F877
:10064000251002292BD10168D0E91032846C0D6885
:1006500025F00E050D600D6825F001050D6021687F
:1006600021F48071216002F01C01012202FA01F1E3
:100670005960D0E913134B60416D31B10B6823F41D
:1006800080730B60D0E916134B60002180F82410B2
:1006900080F82520826B2AB19047002102E00421D6
:1006A000C16301210846B0BD60B10068CB06026895
:1006B00005D5C90254BF22F4801242F480120260B0
:1006C0000020704701207047F8B54FF0010C00285A
:1006D00046D00368254A7E4F0446196802F58065B6
:1006E00021F00101196020490E1DB3423CBF0025D5
:1006F000C4F2020538BF07F580671F441420B7FB1A
:10070000F0F08700C4E910570025B3421D6038BFE0
:10071000111D1C2202EA80000CFA00F0086020463D
:10072000FFF7B8FE606804F148030ECB01380328D8
:100730000D60536007D82046FFF7D2FE04F1540243
:1007400007CA05604A60E563C4E91555E565C4E973
:100750000B55C4E90D5584F8245084F8255000E069
:1007600001252846F8BD00BF0404024000000240F5
:10077000F0B5D0E910230168042403F01C031668C7
:100780000D689C40344201D06F071BD402249C406A
:10079000344201D0AF071FD426FA03F4240735D51D
:1007A0002C0733D50C6824F00E040C60012101FAEB
:1007B00003F353600022C16380F8242080F82510E1
:1007C000416B1FE00B689B0603D40B6823F0040306
:1007D0000B605460016B15E00A68920606D40A6843
:1007E00022F00A020A60012280F82520002280F807
:1007F0002420074A02F17C03994288BF02F58062F7
:100800001460C16A11B1BDE8F0400847F0BD00BFF7
:100810000400024000284BD0F8B5044602202B49C2
:1008200084F8250004F10806206801F1080268CE6A
:100830009042274A38BFA1F5806138BF02F5806237
:1008400014270244B2FBF7F29200C4E9101247F6F3
:10085000F07201689143016045EA03016269314326
:100860001143A2691143E2691143226A11430268EC
:10087000114301602046FFF70DFEA06804F1480314
:10088000B0F5804F06BF00206060606800F07F0513
:100890000ECB013803280D6053600BD82046FFF7BC
:1008A0001FFE04F15402002307CA03604A6005E0FA
:1008B000012070470020C4E91500E06500200121F7
:1008C000E06384F8240084F82510F8BD0004024099
:1008D000F8FBFDBFB0B5044690F82400012804BF22
:1008E0000220B0BD01F074FF13D1022084F825006E
:1008F0000020E0632068056825F0010505602046BA
:10090000FFF702FE2068226B01684AB141F00E0138
:100910000CE0002084F824008020E0630120B0BDBA
:1009200021F004010160016841F00A010160A16C3D
:100930000A68D20303D50A6842F480720A60616DC6
:1009400019B10A6842F480720A60016841F001013D
:1009500001600020B0BD0000B0B5044600F058F9B9
:100960000546CB48611C007818BF044400F050F9DC
:10097000401BA042FAD3B0BD2DE9FC4F9D4A4FF079
:10098000000890424FF0070208BF02220024002313
:100990000092019131FA03F608BFBDE8FC8F0122F5
:1009A00002FA03F616EA010E57D0944A4FEA930C66
:1009B000B0F1904F52F82C9007D0914ADDF800A08A
:1009C000904208BF4FF0010A01E04FF0000A08F022
:1009D0000C0B0721424601FA0BF80AFA0BF509EA5B
:1009E0000807AF421BD18449D1F8805025EA0E0593
:1009F000C1F88050D1F8845025EA0E05C1F8845022
:100A00000D6825EA0E050D604D6825EA0E054D605E
:100A10007A4951F82C5025EA080541F82C50032159
:100A20000768904601FA04F50F212F43076002F092
:100A30001C0701FA07F76FF0030101EA53020244B1
:100A4000116AB94311628168A94381604168B14369
:100A50004160C168A943C160019908F104080234EA
:100A6000013397E77047000003490A68024208BF54
:100A700070470860FFF7F6BF0C0800582DE9F84FE3
:100A80005C4A5E4F4FF000094FF0010B4FF0000839
:100A900090424FF0070208BF0222002300920D6827
:100AA00035FA03F208BFBDE8F88F0BFA03F215EA36
:100AB000020A00F099804E6806F0030CACF10105C3
:100AC000012D19D8032404FA08F5846824EA050ED8
:100AD000CC6804FA08F444EA0E048460C6F30014F7
:100AE00004FA03FE446824EA020242EA0E026FEAB4
:100AF000050E42605A000CE0032202FA08F2BCF133
:100B0000030F6FEA020E424603D142464FF0030C38
:100B10001FE0C4688D6804EA0E0495402C43BCF1C4
:100B2000020FC46015D109F01C040F2505FA04FC5E
:100B30006FF0030505EA53060644356A25EA0C0CF6
:100B40000D6905FA04F444EA0C0434624E6806F0B8
:100B5000030C04680CFA02F204EA0E04224316F4B1
:100B6000403F026040D09A0857F822C0B0F1904F41
:100B700005D0234C009DA04208BF012500E00025C0
:100B800009F00C040726A64005FA04F42CEA060630
:100B9000BC46344347F82240174A1746D2F8802013
:100BA0004D6842EA0A04EE0358BF22EA0A04C7F875
:100BB0008040AE03D7F8842042EA0A0458BF22EAF4
:100BC0000A04C7F88440EE023A6842EA0A0458BFB1
:100BD00022EA0A043C60AD027A6842EA0A0458BF7D
:100BE00022EA0A047C60674609F1040908F1020858
:100BF000013354E70008004800080058080001408D
:100C0000000400481823002A08BF2823C150704759
:100C100005480068704700BF1D48034900780A680E
:100C200010440860704700BFC814002080B503203E
:100C300000F078F800F08EFA504908600F2000F0BC
:100C400007F808B1012080BD00F024F8002080BD25
:100C500070B50F4E04463078B8B100F07BFA3178A9
:100C60004FF47A72B2FBF1F1B0FBF1F001F064F9EC
:100C700001250F2C0AD848B94FF0FF302146002239
:100C8000002500F029F8746000E00125284670BDB9
:100C9000080000207047000000280CD400F01F015D
:100CA0000122400902FA01F1034A42F82010BFF381
:100CB0004F8FBFF36F8F704780E100E0002808D4AA
:100CC00000F01F010122400902FA01F1014A42F835
:100CD0002010704700E100E0F0B5184B4FF0FF36F0
:100CE0001C68C4F30224E51E84F0070438BF002505
:100CF00006FA05F7BA43042C28BF042406FA04F4C4
:100D0000A14300F00F04A940043C11432344044ACA
:100D100009010C33B0F1FF3FC8BF83181970F0BD53
:100D200000E400E005494FF6FF030A681A4060F34B
:100D30000A22034810430860704700BF0CED00E032
:100D40000000FA0510B521483222016821F48041E3
:100D500001600A4909685143094AB1FBF2F10022D6
:100D60004469013942F10003A40501D5002BF7D1F4
:100D700040690321800501EAE07010BD1C000020DD
:100D800040420F00114801F0C2BE00BF0F490223CC
:100D900001280A6863F302020A601D490A6842F0EA
:100DA00004020A600FBF30BF40BF20BF20BF01F068
:100DB00016BD00BF0548006800F4C060704700BF62
:100DC0000248016841F480710160704700040058D6
:100DD00010B50C460D49096801F4007118B139B914
:100DE000FFF7D0FF04E019B1FFF7ACFF00B110BD71
:100DF0000748012C016821F00401016004BF30BFE5
:100E000010BD40BF20BF20BF10BD00BF140400585C
:100E100010ED00E0F8B504468078544EC00742D08B
:100E2000FFF7CEFFFFF7F4FE0546D6F8F403C00542
:100E300006D4FFF7EDFE401B0228F6D9032533E068
:100E4000606BD6F8841001F44071814224D0D6F84A
:100E50008410D6F8842042F48032C6F88420D6F874
:100E6000842022F48032C6F8842021F4407289075D
:100E70000146C6F884200FD5FFF7CAFE054641F2A9
:100E80008837D6F88400800705D4FFF7C1FE401BE1
:100E9000B842F6D9D2E7616BD6F8840020F44070EE
:100EA0000843C6F8840000252068C10702D06168A5
:100EB00001F026FE810702D5A16801F021FE81061E
:100EC00005D52169F26F22F440621143F167810573
:100ED00002D5216A01F072FC410502D5616A01F078
:100EE0006DFC010502D5A16A01F068FC410603D53D
:100EF000606901F091FB2068010603D5A06901F04B
:100F00008BFB2068C10503D5E06901F085FB2068F3
:100F1000C1060CD5E168F26F22F440720A43B1F5C4
:100F2000807FF26703D1316841F080713160010444
:100F30000AD5216BF26F22F040420A43F26719B9D9
:100F4000316841F08071316040040CD5E06AF16F86
:100F500021F040510143B0F1005FF16703D13068E7
:100F600040F4803030602846F8BD00BF0C000058C7
:100F70002DE9F843002800F0B780734F05460C4672
:100F8000386800F00700884211D2386820F0070066
:100F9000204301F0DDFD0646386800F00700A0425E
:100FA00005D0FFF735FE801B0228F5D96EE02868D2
:100FB000B9467C4F810711D5A868396821F0F00146
:100FC000084301F0C5FD06463868C00305D4FFF7A5
:100FD0001FFE801B0228F7D958E02868810615D526
:100FE0006869D7F8001121F0F0010843C7F8000143
:100FF000FFF70EFE0646D7F80001800305D4FFF781
:1010000007FE801B0228F6D940E02868410616D565
:10101000A869D7F8001121F00F0141EA1010C7F8B4
:101020000001FFF7F5FD0646D7F80001C00305D41F
:10103000FFF7EEFD801B0228F6D927E0286841075C
:1010400011D5E868396821F4E061084301F080FDBA
:1010500006463868800305D4FFF7DAFD801B0228B6
:10106000F7D913E02868010714D52869396821F4F5
:10107000605141EAC00001F06BFD0646386840034C
:1010800007D4FFF7C5FD801B0228F7D90320BDE870
:10109000F8832868C0071CD1D9F8000000F00700C9
:1010A000A04224D9D9F8000020F007002043C9F855
:1010B0000000FFF7ADFD05464846D9F8000000F0F6
:1010C0000700A04213D0FFF7A3FD01F015FDF3D9EF
:1010D00030E068684FF0B04198B103282CD0022866
:1010E0002ED1096889030FD40120BDE8F88300F0F0
:1010F00031F81649086016480068BDE8F843FFF764
:10110000A7BD09688907EFD5396821F003010843B5
:1011100001F01EFD064641F288386868396801F022
:101120000C01B1EB800FB7D0FFF772FD811B0320DC
:101130004145F2D9BDE8F88309688901D4D5E3E7D0
:1011400009684905D0D5DFE7004000581C000020A1
:101150000C00002080B500F029F812493C220968F3
:1011600002EA9101024A5158B0FBF1F080BD00BF84
:10117000186B000880B5FFF7EDFF0A490A4A0968B5
:10118000C1F3022152F82110C84080BD80B5FFF79D
:10119000E1FF0449044A0968C1F3C22152F8211051
:1011A000C84080BD08000058586B000810B536498B
:1011B00051F8042C086812F00C0205D00C2A15D145
:1011C00000F00300012811D14FF0B040036800681F
:1011D00000F008001B0705D4B8B9D1F88800C0F3A7
:1011E00003201CE0B0B9D1F8880011E02748042A98
:1011F0001ED0082A1BD14FF0B0421268D2025CBF49
:1012000044F60000C0F2E81012E04FF0B040006871
:10121000002004E04FF0B0400068C0F303101C4B06
:10122000002A53F82030184618BF002001E00020A3
:10123000002351F8042C02F00C020C2A22D1086879
:1012400000F003021148022A0CD0032A09D14FF002
:10125000B0421268D2025CBF44F60000C0F2E8104F
:1012600000E018460A680B6809680124C2F30622E8
:1012700004EB51715043C3F302120132B0FBF2F0A0
:10128000B0FBF1F010BD00BF0C0000580024F400CA
:10129000406C00082DE9F047002800F05981DE4C31
:1012A0008246606800F00C08A06800F003099AF814
:1012B0000000800627D49AF80000C00770D0B8F16B
:1012C000080F63D0B8F10C0F08BFB9F1030F5DD060
:1012D0004FF0B041DAE901020B6823F480131A439E
:1012E000B0F5803F0A6009D0B0F5041F40F0968148
:1012F0004FF0B040026842F400120260086840F407
:101300008030086097E1B8F1000F1DD0B8F10C0FE4
:1013100008BFB9F1010F17D04FF0B0463068DAF8C6
:101320002010002900F0348140F0010001F0B8FAEB
:1013300005463068800700F13A81FFF769FC01F04B
:10134000DBFBF6D9BDE8F0874FF0B04108688007B5
:1013500004D5DAF82000002800F0FA80DAF8280036
:101360000968090759BFD4F8901009094FF0B04136
:10137000096801F0F001884240F2D48001F0D8FD04
:10138000002840F0E58001F005FAE4E04FF0B040BD
:101390000068800304D5DAF80400002800F0D88043
:1013A0009AF80000800730D5B8F1040F1BD0B8F1CF
:1013B0000C0F08BFB9F1020F15D04FF0B0463068DE
:1013C000DAF81010002900F0468140F4807001F036
:1013D00067FA0546306840050FD4FFF719FC01F0A5
:1013E0008BFBF7D9AEE74FF0B0400068400504D55D
:1013F000DAF81000002800F0AB80DAF81400216859
:1014000021F0FE4141EA006020609AF800000007E8
:101410002CD49AF8000040074FD4DAF82C0010B30F
:10142000B8F10C0F40F0C680012800F09180DAF886
:101430003010A06800F003028A4240F08980DAF898
:10144000341000F070028A4240F08280DAF83810DE
:1014500000F4FE42B2EB012F7AD1DAF8441000F02A
:101460006040884274D10020BDE8F087D4F8901025
:10147000DAF8180000287AD0DAF81C0001F010021F
:10148000904200F08D8101F00302022A60D0C9076A
:1014900000F07F81D4F8900020F0010001F072FB91
:1014A0000546D4F89000800740F17181FFF7B0FB4A
:1014B000411B03201129F4D944E7D4F8FC03C005EB
:1014C0000ED4FFF77DFCFFF7A3FB0546D4F8FC0321
:1014D000C00505D4FFF79CFB01F00EFBF6D931E700
:1014E000DAF80C00002800F0C580852801D0052816
:1014F00005D1D4F88C0040F00400C4F88C00FFF74C
:1015000087FB01F045FA40F00100C4F88C00D4F8E4
:101510008C00800764D4FFF77BFB411B0320B142A2
:10152000F5D90FE74FF0B0410A6842F008020A60AF
:101530000A6822F0F00202430A60DAF824102268F6
:1015400022F47F4242EA0121216001F0F1FC10B156
:101550000120BDE8F087FFF7FDFD9B4908609B482F
:101560000068FFF775FB00287FF4ECAEA3E621F0DE
:10157000010001F007FB0546D4F8900080077FF5D5
:1015800048AFFFF745FB411B03201129F4D9D9E6E9
:1015900020F0010001F084F90546306880077FF5EE
:1015A0008AAEFFF735FB01F0A7FAF6D9CAE601F0DB
:1015B000F1F880E64FF0B0460228316821F08071E2
:1015C000316071D1FFF724FB05463068800140F19E
:1015D0008180FFF71DFB411B03200A29F5D9B1E6E5
:1015E000DAF80C0040F00400852840F09980FFF7FD
:1015F0000FFB01F0CDF940F08000C4F88C00D4F866
:101600008C0000053FF509AFFFF702FB411B0320EB
:10161000B142F4D996E600BF040000584FF0B0463E
:101620000028316821F480313160316821F40011E3
:10163000316000F09E80FFF7EBFA05464FF0B046B0
:10164000306880033FF5ACAEFFF7E2FA411B0320A0
:101650006429F5D976E620F4807001F021F9054679
:10166000306840057FF5D1AEFFF7D2FA01F044FAB9
:10167000F6D967E6FFF7CCFA0646D4F88C0041F2BB
:10168000883920F08000C4F88C00D4F88C002746FC
:101690000405FFF7BDFA0546002C55D5A91B03200C
:1016A0003C464945F1D94DE6A068494920F0030080
:1016B000A060A0680840A060FFF7AAFA044630685E
:1016C00080017FF5D0AEFFF7A3FA011B03200A29A2
:1016D000F5D937E6A0683F490AF130070840EECF58
:1016E0000843104340EA032028434FF0B0453043FD
:1016F0003843A060286840F080702860A06840F0FF
:101700008050A060FFF784FA0446286880013FF506
:10171000AAAEFFF77DFA011B03200A29F5D911E6CD
:10172000FFF776FA01F034F920F08000C4F88C005D
:10173000D4F88C0000057FF570AEFFF769FA411B05
:101740000320B142F4D9FDE5D7F88C003C4641F2C4
:10175000883620F00100C7F88C00D4F88C00800790
:101760007FF55BAEFFF754FA411B0320B142F4D979
:10177000E8E5FFF74DFA0546306880037FF510AEC7
:10178000FFF746FA411B03206429F5D9DAE5DAF8B8
:101790001C00D4F8901021F010010843C4F8900008
:1017A000D4F8900040F0010001F0ECF90546D4F8BF
:1017B000900080073FF52DAEFFF72AFA401B112855
:1017C000F5D90320BDE8F0871C0000200C000020A4
:1017D000FFFFFEEE8C80C11170470000034850F8F7
:1017E00021007047014840F82120704700B10040B7
:1017F00090F82C200221012A0DD080F82D10BC4930
:10180000734601F096F89E4642F020020A60734645
:1018100001F002F89E460846704700BF80B503F00D
:101820001BFD0130BDE8804003F022BD10B5044629
:1018300021480168490604D5402181602046FFF710
:10184000EDFF012084F82D0010BD00BF90F82C2082
:101850000221012A12D080F82D10A549734601F00B
:1018600068F89E4642F080020A60A34A136843F477
:1018700080231360734600F0CFFF9E4608467047F2
:1018800004F03EBD70B50C4D04462868216B01EA9A
:101890000006F00704D00120A8602046FFF7F0FF03
:1018A000B00704D50220A8602046FFF795FF01206D
:1018B00084F82D0070BD00BF54280040B0B590F8EA
:1018C0002C300222012B2ED0894BCA2480F82D20E7
:1018D000DC605324DC606FF40854B1F5807F08BFEE
:1018E0006FF488541D682C401C603424B1F5807F4F
:1018F00008BF2C24E55825F00045E55008BF01221B
:101900005A64FF22DA6000226FF0020380F82C2074
:10191000B1F5807F08BF6FF00103016B19400163CF
:10192000012180F82D101046B0BD00BF70B588B3FE
:10193000044690F82D0028B9002084F82C00204699
:1019400000F03EF80220794D84F82D00CA20A861ED
:101950005320A86100F0D2FFC8B9E8681749261DD6
:101960000840E8604ECEA06931430843E968084367
:10197000E86043EA02406860D4E909012A6822F479
:10198000F85210430843286000F0C5FF20B1FF2142
:10199000A96170BD012070BD6069D4E90712EB68D0
:1019A00023F060431A4311430843E860FF20A86115
:1019B000012084F82D00002070BD00BFBFFF8FFB09
:1019C00010B590B0044601A830210430FEF728FC81
:1019D00020681749884229D14FF480700E904FF447
:1019E0008030019001A8FFF715FA08B1FEF7EDFD70
:1019F00010480022816B41F400418163016841F489
:101A0000806101600021006800F480600F900F98F1
:101A10000220FFF761F90220FFF750F92A20002188
:101A20000022FFF759F92A20FFF748F910B010BD3E
:101A300000280040580000582DE9F84300F033FF1B
:101A400054D084F82D000120294F01F09FF801D1D6
:101A5000002021E072B16869B0F1803F07D0B0F595
:101A6000000F04D0396849065CBF0021E97000F01E
:101A7000C0FE11E03868DFF87C9040065CBF0020B3
:101A8000E8702878C84780466878C84700F046FF65
:101A900000F0E9FF01F08DF801F05DF80ED101F0E2
:101AA000BFF819BFB862A869D5E906010843F86212
:101AB00068680121B8654FF488500DE001F096F890
:101AC00019BF3863A869D5E90601084378636868D7
:101AD0000221F8654FF408503A6810433860064810
:101AE000026842F40032026000F05DFFBDE8F88356
:101AF000182800401130000880080058B0B50B4D80
:101B0000286820F020002860FFF782F80446286843
:101B1000800644BF0020B0BDFFF77AF8001BB0F587
:101B20007A7F84BF0320B0BDF1E700BF0C280040DE
:101B3000014800F033BF00BF10E000E029B10129E7
:101B400018BF70474FF4807000E08020CB4989684F
:101B5000084700BFC9488168402008472DE9F04187
:101B600001F02FF802D16079012802D10220BDE8EE
:101B7000F08100F09FFEEE490868884600F07BFF88
:101B8000394602F07FFB20460021002702F07AFB55
:101B9000AF4204D201F003F801370136F8E700F054
:101BA000BBFF00F042FE18BF0120BDE8F08100BF7E
:101BB0002DE9F04101F005F802D16079012802D148
:101BC0000220BDE8F08101201E4617460D466071D7
:101BD000204602F085FB05F0EF00D5498438B0FAC5
:101BE00080F0884640092071086800F044FF2946CB
:101BF00002F048FB36B117F8011B204602F042FB09
:101C0000013EF7E7D8F80000842D40F40040C8F802
:101C1000000002D0204602F087FB00F006FE18BF4D
:101C20000120BDE8F08100BF94488168202008476A
:101C300092488168102008477CB5044600200DF1C9
:101C4000060212210223ADF806002046FFF786FFA8
:101C50009DF807609DF80650F00702D0204600F07E
:101C600009F9B00702D5204600F0F6F8700702D552
:101C7000204600F091F8300702D5204600F0F6F833
:101C8000F00602D52046FFF7D3FFB00602D5204666
:101C9000FFF7CAFF700602D52046FFF75BFF30064C
:101CA00004D505F001012046FFF748FFA80702D53B
:101CB000204600F0D5F80DF106022046022102234D
:101CC000FFF776FF7CBD0000BCB510B304468079F9
:101CD00020B900206071204600F046F802201E4A1C
:101CE0006423A0711D48815821F4004181501C4992
:101CF0000968C1EBC101C1F34C41594301910199FC
:101D000049B1019B013B019383585B04F7D4002543
:101D100003E001251DE00125A560D0F8882042F4EC
:101D20000042C0F888200F4A136843F480531360C0
:101D3000026842F4006202604FF40062026131B155
:101D4000206802F05FFA0020A060012020710120CD
:101D5000A0712846BCBD00BF8CFCFFFF08040058E2
:101D60001C00002090080058E0B50A4800220168D5
:101D700041F0010101600021006800F001000190C4
:101D800001983220FEF7A8FF3220BDE88C40FEF714
:101D900095BF00BF64000058384881680420084798
:101DA0002DE9F84300F00DFF02D16079012802D13E
:101DB0000220BDE8F88300F07DFD5D49DFF8748105
:101DC0000868894600F057FE1E21C0472046394664
:101DD000C047204600210027C047AF4204D200F090
:101DE000DEFE01370136F8E700F0E9FD00F01DFDE9
:101DF00018BF0120BDE8F8832DE9F84300F0E1FEAB
:101E000002D16079012802D10220BDE8F88300F0F8
:101E100051FD4749DFF81C810868894600F02BFE18
:101E20001D21C047390A2046C047F9B22046C047A5
:101E3000204600210027C047AF4204D200F0AFFE89
:101E400001370136F8E700F0BAFD00F0EEFC18BFEC
:101E50000120BDE8F88300BF0848816802200847D8
:101E6000064881684FF40070084700BF0348816846
:101E7000082008470148816801200847A400002085
:101E80002DE9F04100F09DFE02D16079012802D1D8
:101E90000220BDE8F08100F00DFD25490868884664
:101EA00000F0E9FD0E2102F0EDF92046394602F07E
:101EB000E9F91DB100F0A2FE013DFAE700F02CFEA9
:101EC00000F0B3FC18BF0120BDE8F0812DE9F84314
:101ED00000F077FE1CBF0220BDE8F8830F46617951
:101EE0000220012921D0A07101201D4616466071F3
:101EF000204602F0F5F90E49DFF838800868894677
:101F000000F0B9FD0D21C047390A2046C047F9B29B
:101F10002046C0471DB100F071FE013DFAE700F018
:101F20004EFD00F082FC18BF0120BDE8F88300BF21
:101F30009004005885420008411E0020B0EB116F4C
:101F40001CBF01207047074AF023516002490B7003
:101F5000072190601160704723ED00E0014800F018
:101F600043BC00BF10E000E010B500F08DFD04BFE1
:101F7000022010BD2420C4F8840020680168026893
:101F800022F0010241F000510260012284F8802019
:101F90004FF0005262660160204603F075FB00209E
:101FA000202184F88000C4F8841010BD90F88010BF
:101FB000012901D102210FE0012180F88010016880
:101FC00051E8001F026841F0020142E80013002BB3
:101FD000F5D1002180F8801008467047704770479F
:101FE000B0B500F051FD04BF0220B0BD00F02EFCE2
:101FF00022F0606200F0A3FD00F06FBCB0B500F00D
:1020000043FD04BF0220B0BD00F020FC22F060427E
:1020100000F095FD00F061BCBCB500F035FD04BFDB
:102020000220BCBD2420C4F884002068036823F08B
:1020300001030360012384F88030836823F4401394
:102040000B43836059B9436891B223F010031943DD
:102050004160C2F30741426861F31F624260016858
:1020600041F001010160FEF7D3FD03466FF07E40B1
:102070004FF48001002200250090204603F022FF4B
:1020800008B1032003E02020C4F88400002084F875
:102090008050BCBD704770477047000070B5044663
:1020A000006840F60F05C269016883682A4267D05C
:1020B000A64D01EA0506A64D1D40761968D0D60743
:1020C00009D0CE0507D501260662D4F88C6046F00B
:1020D0000106C4F88C60960709D5DE0707D00226F2
:1020E0000662D4F88C6046F00406C4F88C6056078B
:1020F00009D5DE0707D004260662D4F88C6046F0C6
:102100000206C4F88C6016070BD501F02006354393
:1021100007D008250562D4F88C5045F00805C4F8AE
:102120008C5015050AD54D0108D54FF400650562A0
:10213000D4F88C5045F02005C4F88C50D4F88C505D
:10214000002D00F0C38092060AD503F0805201F002
:102150002001891804D0216F11B1204688472068DA
:10216000D4F88C10806801F0280100F0400040187D
:1021700046D12046FFF790FF0020C4F88C00A5E070
:10218000950605D503F0805501F02006AD1945D11F
:10219000E56E012D03D1D50601D5CD0645D4D50276
:1021A00001D55D0224D4150605D503F4000301F022
:1021B00080055B1930D1530601D54B060ED41002B1
:1021C00001D5480056D4D00140F18080B1F1FF3FE5
:1021D0007CDC2046BDE87040FFF701BF50E8000FEF
:1021E000216820F0400000F0C5FC39D02068F5E7F8
:1021F0004FF4801101622046BDE87040FFF74BBFED
:10220000204603F02DFB20688168490641D500F087
:10221000DFFB34D02068FAE7616F00E0216F00290E
:1022200054D02046BDE87040084710210162816803
:10223000490633D4B4F85E10B4F85C20B4F85E30CC
:10224000002B43D0511A0A0440D050E8000F2268F6
:1022500020F4907042E80003002B57D02068F4E788
:10226000002060672020C4F884002046BDE870404C
:1022700000F092B92046BDE87040FFF70BBFE06F59
:1022800038B134498163FEF7D9F9F8B1E06F816B59
:10229000C8E72046BDE87040FFF7FEBEE16F0A6860
:1022A00053689DB295B1B4F85C108D420ED2A4F87B
:1022B0005E301268920624D450E8000F216820F4A2
:1022C000807000F057FC02D02068F5E770BD2068F0
:1022D00050E8020F216820F0010000F0D1FBF6D198
:1022E000206800F075FBFBD12020C4F88800002096
:1022F000E06600F0A1FAFCD1E06FFEF767F9B4F8F0
:102300005C10B4F85E00081A81B21AE01248226824
:1023100052E8022F2368024043E80225002DF6D13F
:102320002020C4F8880000202067E066206850E87C
:10233000000F226820F0100042E80003002BF5D1C6
:1023400089B22046BDE87040FFF748BE2001000476
:1023500001000010C1570008FEFFFFEF10B548B1A3
:102360000446D0F8840008B900F062FC00F0AAFA34
:10237000012801D1012010BDA06A08B100F0B9FB0D
:1023800000F0ABFB21F02A01816000F0CCFABDE83F
:10239000104003F0EFB9000010B504460068F249A0
:1023A000884218BF10BD0948016821F480410160CE
:1023B0004FF09040C021FEF7DFFAA06FFEF784F9DE
:1023C0002420BDE81040FEF767BC00BF6000005845
:1023D00070B594B00446684630210830FDF720FF00
:1023E0002068E14988424FD14FF4403001250190E7
:1023F00068460095FEF70EFD08B1FEF7E6F8854841
:102400000026416941F480414161416901F4804104
:102410000E910E99016841F002010160006800F020
:10242000020013900720CDE91056129002200F9061
:10243000C0200E9013980EA91448FEF71FFB1448F5
:10244000144D802110221223C0E90053C0E9022656
:10245000C0E90416C0E906660662FEF7DBF908B1BA
:10246000FEF7B3F80A4D10212846FEF71DF908B112
:10247000FEF7ABF8242000210022AC62A567FEF72E
:102480002BFC2420FEF71AFC14B070BD0004004899
:102490009008002008000240B0B5D0F88830202B0A
:1024A00005D131B12AB190F88030012B03D102203F
:1024B000B0BD0120B0BD0023074C00F0C5FA02D02A
:1024C0005C68240203D403F085FC0020B0BD00F05A
:1024D00044FAF8D00368FAE70080004010B50446DB
:1024E0000848436833B1D4F88C0018B90548012175
:1024F00000229847034920460122BDE81040FFF71B
:10250000CBBF00BF28000020F8B50446D0F88400F7
:10251000202806D139B313462AB394F88000012845
:1025200001D10220F8BD00250120A4F85630C4F8DE
:102530008C5084F880002120A4F854302165C4F820
:102540008400A06F88B1114A114E124FC0E90D25C9
:102550002268C0E90B762832FEF7BCF928B100F0FA
:1025600061FAC4F884000120F8BD2068402184F895
:102570008050016250E8020F216840F0800000F0B6
:102580007FFA01D02068F5E70020F8BDD157000898
:102590005B580008235800080148016800200847DC
:1025A000000700207047704781B005490A68024360
:1025B0000A60096808400090009801B0704700BFA9
:1025C0004800005881B01348016841F002010160E1
:1025D000006800F002000090009801B0704700BF52
:1025E00081B00C490A6802430A60096808400090FB
:1025F000009801B0704700BF81B00648016841F003
:1026000004010160006800F004000090009801B02F
:10261000704700BF4C000058064A6FF47F2161EA02
:10262000101100F47F401368194041EA0010106057
:10263000704700BF8800005880B50420FFF7B4FF42
:102640000120FFF7B1FF0B2000210022FEF744FB21
:102650000B20BDE88040FEF731BB000080B58CB098
:1026600001A82821FDF7DCFD174800224FF48071F6
:102670004FF08043C0E908211F21C0E90422C0E9CE
:102680000623816011490160FFF750F908B1FDF799
:102690009CFF0D48FFF7DAF808B1FDF796FF4FF4FD
:1026A000807000220B904FF00050079000200690A1
:1026B00002900890044801A9FFF7BEF908B1FDF7A0
:1026C00084FF0CB080BD00BFF0080020002800404F
:1026D00080B5054808210160FFF7F6FA18B1BDE89A
:1026E0008040FDF772BF80BD2809002080B502F050
:1026F0003FFDBDE8804002F0C3BB4FF0FF3003F068
:1027000043BD000010B5174C00210C20164B4FF4B0
:102710001652C4E90410C4E9021104F1180014218E
:10272000C4E90032FDF77CFD2046FFF717FE08B133
:10273000FDF74BFF0B480021FFF760FC08B1FDF7E8
:1027400044FF08480021FFF74BFC08B1FDF73DFFAF
:102750000448FFF709FC18B1BDE81040FDF735BF8C
:1027600010BD00BF3409002000380140FEE7FEE73D
:102770008202810D002310464FF47A72FDF7F8BCF7
:1027800001200021012203F00DBC284631462246DB
:10279000FDF751BD4FF0B040016841F00801016004
:1027A000DAE90912036823F0F0031A430260206893
:1027B00020F47F4040EA0120206070474FF6FF720E
:1027C000F36F62EA01021A4042EA0141F167704781
:1027D000012084F8240094F8250001287047086837
:1027E00020F0040008607047016821F002010160D8
:1027F000704729786A78AB7895F803C040EA0140C1
:10280000296A40EA0220184340EA8C50084395F8B0
:10281000241040EA01607047FF22CA6000210122B3
:1028200080F82C1080F82D20704700200121607165
:10283000A068A17100287047206850E8000F216847
:1028400020F0100041E80002002A70472420C4F85C
:10285000840020680568026822F0010202600122FB
:1028600084F88020826870478DF807004A70010A5A
:10287000000C03228DF806108DF8050070474FF00C
:10288000FF3070470022002301F060BF20464FF464
:102890008071FFF713B8A7F10C04A546BDE8F08FCF
:1028A0003060FEF7B5B90D4690F82C1004460220B2
:1028B0000129704701201D4616460F4660712046CB
:1028C00001F00EBD2420C4F884002068016821F0C6
:1028D00001010160204603F08DB9206820210560C8
:1028E000002084F88000C4F88410B0BD012202F0FA
:1028F000A5B902200021012203F054BB204600F0BC
:1029000099BB016851E8021F026821F4000142E806
:102910000213002B7047204600F0B4BB000240EACF
:102920000848A8784847016841F001010160204645
:102930007047CA22CA605322CA600A68704751E8C9
:10294000001F026821F4907142E80013002B7047C9
:10295000206850E8020F2168704753E8003F046880
:1029600043F0806344E80035002D70470421016284
:10297000D4F88C0040F00200C4F88C0070470222AA
:102980000262D4F88C2042F00402C4F88C20704714
:102990000546D4F88C0041F288367047016841F052
:1029A000020101607047FF20F8600020226B84F86C
:1029B0002C0011432163012184F82D107047D9F8B0
:1029C000000040F40040C9F80000204601F0ACBC13
:1029D00050E8020F216820F0400041E80202002A7E
:1029E000704713460A4601467047002002F054B86B
:1029F00001220262D4F88C2042F00102C4F88C203B
:102A0000704702F0010900F480784FF0200A4FF07F
:102A1000000B704708688A68B4F86050D4F88830B2
:102A2000222B70471020C4F88C00002084F880000E
:102A30002020704700222B460090204603F042BA27
:102A4000B0F85C10FFF7CABAC366012380F8803083
:102A50000368A3427047096801F00F0152F8211082
:102A6000B0FBF1F0704708EB0001EA7895F824001C
:102A700041EA8258484720F40040086020467047E9
:102A800041E80202002A7047044690F880000128BD
:102A9000704700F0FB0040EA840140F2367002F01B
:102AA000DBB82020C4F88400C4F8880000207047F8
:102AB000886940F0080088617047C4F888A0C4F8AD
:102AC00070B0E06E0128704751E8001F026841F4C1
:102AD000807142E80013002B70472068416821F4A0
:102AE00090414160816870472046B4F85C10FFF760
:102AF00075BA204602F0EABD411B03200229704747
:102B0000F26F22EA114289B21143F16770470168FE
:102B100041F4804101607047D8F8000040F4004063
:102B2000C8F80000204601F0FFBB016851E8001F13
:102B3000026841F0400142E80013002B7047114346
:102B40008160204602F0A0BD90F8560001F0C1BFA0
:102B50003860FEF75DB8CA21F9605321F960396821
:102B6000AA6AB2F5807F7047C2EBC202C2F34C4240
:102B70005A43704741E80002002A704740F2FF10B4
:102B800002F032B8C4F89000FEF742B884F82C0086
:102B900057F80C0C00F44076B6F5807F704720465D
:102BA000314601F041BB214600F11C05284603F0E7
:102BB000EDBB2A6A696942EA080242EA00600843FA
:102BC00070470446807901287047016851E8001F6A
:102BD000026821F0100142E80013002B70478DF8C5
:102BE000060049F2C140ADF80400704721F40851D5
:102BF000396002217964B6F5807F704716F8011BB1
:102C0000204601F03FBB016851E8021F026821F035
:102C1000010142E80213002B7047012000F08ABD39
:102C200021F48851396001217964B6F5807F7047BD
:102C3000002084F880002046FFF7CABB002194F8EA
:102C4000560001F046BF00002DE9FC411F46144626
:102C50000D4680460FA3FFF793FD11A3012000212D
:102C60000122CDE9004703F09DF9964E1548FF215A
:102C70007770FDF7D5FAFF2DB58004D8114841468D
:102C80002A46FDF7A6FA347002200021BDE8FC4177
:102C900003F0EEBA4F6E5278446F6E650A0D000075
:102CA0005273736956616C75653D25642064426D8D
:102CB0002C20536E7256616C75653D256464420A22
:102CC0000D000000240300200220002103F0D0BAF0
:102CD00080B504A3FFF754FD02200021BDE8804029
:102CE00003F0C6BA4F6E527854696D656F75740AF9
:102CF0000D00000080B506A3FFF742FD1248FF213A
:102D0000FDF78EFA02200021BDE8804003F0B0BA42
:102D10004F6E5478446F6E650A0D000080B506A3AF
:102D2000FFF72EFD0848FF21FDF77AFA0220002167
:102D3000BDE8804003F09CBA4F6E547854696D65CD
:102D40006F75740A0D000000240400201FB55D4C4F
:102D5000A078B8B102A802F0D7F9DDE90212D4E9EF
:102D60000230C4E90612009002A802F0F1F9DDE990
:102D70000201C4E9080108B2062803DB5A4800F042
:102D8000C6F800B11FBD00200021A070E080042023
:102D900003F06EFA1FBD00BF704780B5FFF7DEF885
:102DA00000200121BDE88040FEF712B880B5FFF792
:102DB000D5F80448012101600120BDE88040FDF7FD
:102DC000E5BF00BF880400587047FEF7B1BE80B56C
:102DD000FEF7AEFEBDE8804003F00EBE7047000077
:102DE0002DE9F043ADF5FE7DDFF8D880364E98F83A
:102DF00003007E903046FDF734FA0446013001218D
:102E0000FDF752FA05460420314622468DF8F701B7
:102E10007EA82B4600900DF2F71003F085FB9DF87D
:102E2000F77127B1022F32D0012F3AD1012728465E
:102E3000FDF717FA0DF1F4090646FC2109F104002B
:102E4000FDF7EEF942F27710294632468DF8F77019
:102E50008DF8F660ADF8F40098F803008DF8F800EE
:102E60007E988DF8F90009F10A00FDF7B2F92449BE
:102E700009F10C006A4650F8043B043942F8043B5F
:102E8000F9D13DAB18480ECBFDF77CFB0FE07E98E7
:102E90000EA30021002288F80300C0B20090012098
:102EA00003E012A301200021012203F07BF8284651
:102EB00003F0CEFD04482146FDF7B2F90DF5FE7D85
:102EC000BDE8F08330000020040700200A0D4445CF
:102ED000564943455F4944206973206E6F77203D12
:102EE0002025640A0D000000C40900204572726F9D
:102EF0007220696E20696E7075742E0A0D000000D4
:102F0000F40000008078B0FA80F0400970478078C3
:102F10000A38B0FA80F040097047FDF729BAFDF78A
:102F200049BAFDF749BAFDF77BBAFDF77BBA000055
:102F300070B53C21214A01EA90001E4908581E49FB
:102F4000FFF789FD1E49B0FBF1F4FDF733FFB0F543
:102F5000007F09D11C49002003280FD031F8102030
:102F6000A2420DD20130F7E716490020032805D010
:102F700031F81020A24203D20130F7E7002502E029
:102F800012A151F82050144E306820F00700284359
:102F9000FFF786FC0446306800F00700A84204BF33
:102FA000002070BDFDF734FE001B032824BF032062
:102FB00070BDF0E7406C000808010058186B00086D
:102FC00040420F00126B00080C6B0008000000006C
:102FD00001000000020000000040005870477047E8
:102FE000FFF74DBC0020704700207047FFF747BC3B
:102FF000FFF745BC704770477047FFF740BCFFF7CD
:103000003EBC00000148FEF73DBC00BFF0080020B8
:1030100009210A23C0FA51F10931CAB2B2FBF3F215
:1030200002EB8203A1EB4303591A084440EA021061
:10303000C0B270472DE9F041114E8046306840061D
:1030400019D430680027012440F080003060FDF77B
:10305000DFFD05463068E14341EA9010C0070BD11F
:10306000FDF7D6FD401BB0F57A7FF3D90327002486
:1030700088F82D70EEE70027F8B2BDE8F08100BFB8
:103080000C280040B0B5124D044655F80C0C20F049
:10309000800045F80C0C2868800606D4FEF72EFD4B
:1030A00070B1032084F82D00B0BD286820F0200006
:1030B0002860FEF723FD28B1032084F82D0002E0EC
:1030C0000020B0BD0020296841F020012960B0BD7A
:1030D000182800400120704780B501F0DFF904385E
:1030E0000023044AC0B2C100042838BF22FA01F309
:1030F000D8B280BD0201000380B501F023FA03308D
:1031000080BD00007CB5F84EF84900253446C1E981
:1031100001554D7001C4194801F070FA002000F00B
:1031200031FB01F020FC0020002101F0D8FA012041
:103130000021042201F018FD4FF6FF704FF6FF71D9
:10314000FFF7A0FB00F056FF0D4B20464FF0FF317C
:103150000022009503F0A0F8009506F11C05094B2C
:103160004FF0FF310022284603F096F8204603F086
:103170005BF92846BDE87C4003F056B94D340008A1
:1031800069340008593400087CB5774C00208DF86C
:1031900007000090B4F85400411E072927D91028D1
:1031A00000F08080202800F07F80402800F095808B
:1031B000802800F09E80B0F5807F00F0A380B0F5FD
:1031C000007F40F0D0807AA3FFF793FB01F066F90F
:1031D000042840F0A280694C201D03F025F9FFF778
:1031E00004FC2068002800F0BE804068A3E0DFE80F
:1031F00001F00416BA4CBABABA4E604C201D03F066
:1032000013F9FFF7F2FBFFF7EFFE012808BFFFF706
:10321000E6FE2068002800F0A68000688BE0574D8D
:1032200005F11C0003F000F9607880B9FFF7DDFBC1
:1032300040F60210002101F00FFD40F6441001F0AD
:1032400029FA40F0020140F6441001F005FD5D4806
:103250000DF10701FF2201F05DF904F1240001F0F6
:1032600021F92868002800F07E808668002E7AD038
:1032700094F82400012862D194F9313094F9302077
:103280009DF807104F48B0477CBD46A31DE042A300
:10329000FFF72FFBFFF7A6FE012864D1BDE87C40B5
:1032A000FFF7A8BE39A310E0344D05F11C0003F070
:1032B000BBF8607808B9FFF798FB2868002852D05F
:1032C000C06800284FD080472DA302200021012292
:1032D00002B0BDE8704002F065BE24A3FFF709FB11
:1032E000607808B9FFF781FB24480068D8B300690B
:1032F00021E0FFF77AFB21480068A0B3816991B310
:10330000002007E0FFF771FB1C48006858B3816993
:1033100049B30120BDE87C40084701F0BFF805280B
:1033200021D1164C04F11C0003F07EF8FFF75DFB81
:103330002068C0B1C068B0B1BDE87C400047E06B18
:10334000694601F05BF800984FF47A7194F92920EE
:1033500000F5FA7090FBF1F09DF8071043B2286871
:103360008468E148A0477CBD240600204952515F93
:103370004352435F4552524F520D0A00B0000020A5
:10338000484452204B4F0D0A000000004844522090
:103390004F4B0D0A0000000053594E43204F4B0D78
:1033A0000A000000505245204F4B0D0A000000005B
:1033B0004952515F52585F54585F54494D454F55DB
:1033C000540D0A00230500202DE9F0418AB01C4667
:1033D00015468846074600F016FE0020002600F03D
:1033E000A9F9384601F0D0FA012041464FF416728F
:1033F0000023CDE90266CDE90466CDE90666CDE994
:1034000008600320CDE90080002000F0D7F90020FB
:1034100000F046F8FFF770FEFDF79EFA02F056FF47
:103420000646304602F05CFF0746A04203D201F098
:10343000BDF8A842F5DD0025A74228BF012500F010
:10344000E2FD28460AB0BDE8F0810000DA49A1F8A3
:103450005400FFF799BE00BFAB48006810B1C068C8
:1034600000B10047704700BFA748006810B140682E
:1034700000B10047704700BF80B5FFF7CEFB0020CA
:103480000021FFF7FFF9BDE8804001F05DB801F0D1
:1034900001B901F00BB980B501F088F880BD0000DA
:1034A000B0B50446FFF79EFD012802D1FFF79EFD4F
:1034B00005E040F2622040F26221FFF7E3F92CB10F
:1034C0009148FFF770FB284602F078FFBA4CFFF7EF
:1034D000B5FB61786FF07F40A268002908BF9001BA
:1034E000BDE8B04001F080BAB00000202406002002
:1034F000B0B50446FFF776FD012802D1FFF776FD4F
:1035000005E040F2622040F26221FFF7BBF92CB1E6
:103510007D48FFF748FB284602F050FFA64CFFF716
:103520008DFB61786FF07F40A268002908BF900191
:10353000BDE8B04001F064BA2DE9F84F8B468146F2
:1035400040F2012040F20121FFF79CF9DFF894815D
:10355000012198F8560001F0BCFA98F8000098F89C
:10356000511081F0060180F0010050EA010640F69A
:10357000890018BF012601F08DF800F0FB0040EA39
:10358000860140F6890001F067FB98F800000328E7
:1035900000F29080DFE800F00214171EFFF722FD12
:1035A00001287CD10DF1030248465946FFF725FD5D
:1035B000002800F08B804EA3FFF79BF9BDE8F88F41
:1035C00088F81FB06DE00221404600F80E1F80F819
:1035D0000CB068E0444800215A464B463AB11E7888
:1035E000013AF64303F8016B00F8011BF6E73E4E83
:1035F0004FEACB07002007210022974215D0C2F3E3
:10360000C70421EA0203013219F8044024FA03F343
:1036100021EA020403F001035840C3B2A340C2F3FD
:10362000C704355D2B433355E7E7C10145460BF130
:10363000010941EA8011C0B2B0FA80F0400941EAC4
:10364000401006F80B00022005F80E0F284685F8FA
:103650000C9001F01BF9DFF894A0F1200021D04775
:10366000F0200021D047D5F83A40E121642C08BF72
:103670007021F320D0470421642C08BF1D21F220C3
:10368000D0474FEA5B11F420D047B81CC1B2F520F7
:10369000D0475FFA89F130466FF07F4208E088F842
:1036A00016B008F10E0001F0F1F848465946002224
:1036B00001F00CF81448D8F80410041D204602F05C
:1036C00065FE204602F07AFEBDE8F88F9DF8030003
:1036D00088F8160008F10E0001F0D8F89DF80310E4
:1036E0004846E4E72406002023050020594C000842
:1036F000526164696F53656E64204F7665727369B9
:103700007A650D0A00000000B000002001F03CB90D
:10371000012802D1D148C17705E0D048427D012A75
:1037200018BF70478175C2480170CC480E3001F057
:10373000ADB800BFB0B5C94D04462870FFF75CFCBA
:10374000601E032809D8DFE800F00E0202080220FC
:1037500001F0F0F800206873B0BD0020002401F0F3
:10376000E9F86C73B0BD012001F0E4F8287B697BB7
:103770008142F7D06873002818BF0120BDE8B0402F
:10378000AFF3008010B50446B44844730473FFF7E8
:1037900044FA14214FF4E860002C18BF342101F0E2
:1037A0005BFA242140F24170002C18BF4421BDE88F
:1037B000104001F051BA00BF240600202DE9F04F5F
:1037C00085B0DDE91185DFF8C4B9179C1F46914625
:1037D0008A4606468BF80140B8F1000F08BF4FF04B
:1037E000FF35FFF7FBFB9249002C10980F9C0D70E2
:1037F00018BF0020002E69D0012E00F0B180042EE9
:1038000040F0138100900120884601F059F9092009
:1038100000275E468BF844004FF4487006F8387F66
:10382000CBE90F90504600F027FE5D4605F80E7F6D
:1038300085F837004FF480506860E0006880012010
:10384000A5F8090098F8000028720420FFF772FF1D
:10385000304600F0B3FF284601F018F842F2B2708B
:10386000CDF80E70ADF81270ADF80C0003A801F0A1
:1038700046F9FFF783F9704E40F6B800B0476F4D38
:1038800000F0EF0140F6B800A84740F6B900042167
:10389000A84740F69B00B04700F0E30000F10801A4
:1038A00040F69B00A84740F2D160B04740F01801B5
:1038B00040F2D160A84740F2AC60B04700F08F0002
:1038C00000F1500140F2AC60A84742E000900020B7
:1038D000002701F0F5F80B205E46CBF83C908BF802
:1038E0004400504606F8387F00F0C6FD5D46139947
:1038F00005F80E7F85F8370088F00100AF71E87198
:1039000041F60400A880E00068800120A872002928
:1039100018BF6FF00D00687245480078287200F0FB
:1039200072FB3078002818BF0120FFF703FF3046F4
:1039300000F044FF284600F0A9FFC120CDF8077031
:103940008DF80B70FFF74BF901A801F0D8F8FFF7DD
:1039500015F900994FF4FA504843B0FBF9F062E0D2
:10396000009000205D464FF0000B01F0A9F83149AE
:1039700001202E4622468AF0010306F8380F0C2C4F
:1039800011F80A10B77686F8189006F81A8C717636
:103990006FF0040198BF0C2251FA89F1022916999F
:1039A00028BF224626F81C2C344689F00C0206F863
:1039B000171C139906F8181C1D49097806F8191CDC
:1039C000A9F10B01022938BF4FF0010BBAFA8AF1B5
:1039D00004F82A0D1A434909B2FA82F201EA0B01EE
:1039E000AB4652091143F17600F00DFB3078002808
:1039F00018BF0120FFF79EFE304600F0DFFE204694
:103A000000F044FF0098C0B200F0BBFE16F8170C9F
:103A1000441E40F2367018BF012400F03BFEFFF751
:103A200038F84FF6FF70CBF8080005B0BDE8F08F0E
:103A300018000020786B000895460008594C0008D3
:103A4000B0B50546E9480C460021FFF77DF8284649
:103A50002146BDE8B04000F0EDBF00BF24060020C5
:103A60002DE9F04387B00027984614460D460646D8
:103A7000CDE90477FFF7B2FADFF81097002C18BFF2
:103A8000012489F8014018BFB846012E17D0002E36
:103A900040F0BB80E868002800F0B5802869002865
:103AA00000F0B180687D082800F2AD80002104AAF2
:103AB00088422CD0AB695B5C53540131F8E7A88E87
:103AC000002800F0A08095F8360001280CBFEC69B2
:103AD000FF24E86A002818BF012000F0F1FF5FFA18
:103AE00088F000F04EFE012089F8380095F830107B
:103AF00095F8330089F85010B5F83120A9F8512015
:103B0000C0B3022831D0012836D1012032E0286824
:103B1000002818BF012000F0D3FF002489F83840A6
:103B2000E868C9F83C00287989F84400A86800F0E2
:103B3000A3FC89F8450089F80E40297D95F82230CC
:103B40006A7D95F8230089F8121089F81430298AC3
:103B5000C900A9F81010D10089F81310B8B30228D1
:103B600037D1FF2089F816003AE00B3900200229EE
:103B700038BF012089F85300012009F80E0FA88EE4
:103B800089F81140A9F80E0095F8360089F8100060
:103B9000288FA9F8120000F036FAFFF73EF809F175
:103BA0002A0000F00BFE484600F070FE99F8130062
:103BB000441E40F2367018BF012400F06BFDFEF782
:103BC00068FF4FF6FF70002749F8060C1DE0E96911
:103BD00000E0FF2189F8161095F82A10022918D163
:103BE00095F82400A0F1F101022901D301280AD19E
:103BF0008E4A002402958DF80C4052F81C1B01A837
:103C0000FFF7EEF970B14FF0FF37384607B0BDE867
:103C1000F08389F8150095F8240089F8181089F8C0
:103C2000170004E0012089F81540A9F8170000F0FA
:103C3000EAF900200027FFF77DFD09F1380000F0C8
:103C4000BDFD09F10E0000F021FE04A800F057FFB1
:103C5000288C00F0C9FFE88C00F058FD4FF4FA50B2
:103C6000E96808FB00F0B0FBF1F0C9F80800CCE708
:103C70002DE9FE4F1D46174688460446FFF7AEF96C
:103C8000149EDDF830A0032C4CD0DDF84090DDE927
:103C90000EB3012C54D0002C40F09C80E34E0B203E
:103CA00086F844002846C6F83CA04FF0000A344687
:103CB0001D4604F838AF00F0DFFB06F80EAF86F8BB
:103CC00037000120C6F83270B072B9F1000F18BF8A
:103CD0006FF00D00707286F806A085F00100F0719B
:103CE00041F60400B0804FEACB00708000F08BF901
:103CF0002078002818BF0120FFF71CFD204600F0A7
:103D00005DFD3046149E00F0C1FDC120CDF807A036
:103D10008DF80BA0FEF763FF01A800F0F0FEFEF7A0
:103D20002DFF57E00320FFF705FDC048022100F8F2
:103D3000381F16210175C0F810A000F03FFD49E0C2
:103D40003746BA4E012013990D9ABBF10C0F06F8B5
:103D50000E0F86F84420FB4AF1742549337486F827
:103D600042A086F8129085F001033446525D09782E
:103D700086F8432071746FF004015A4651FA8AF1B3
:103D800098BF0C22022928BF5A46F281AAF10B01E2
:103D900000220229B5FA85F138BF012204F82A0F62
:103DA000490911408AF00C021A43B2FA82F2520910
:103DB000114386F8451000F026F92078002818BF36
:103DC0000120FFF7B7FC204600F0F8FC30463E46E5
:103DD00000F05CFD404600F0F3FDEC4C84F856002A
:103DE000FFF709F96660BDE8FE8F00BF24060020DA
:103DF00018000020B0B514460D4600F0C5FD284659
:103E000000F0DEFD012100F064FE4FF47A704443BF
:103E100000F0A0FE76482146051D284602F0B6FABD
:103E20002846BDE8B04002F0C9BA00BFB00000208B
:103E30002DE9F04186B0074600201C4615460E4687
:103E4000CDE90400FFF7CAF8022F13D0012F19D0D3
:103E5000002F67D1B06890B1316981B1317D0829F7
:103E60000DD8002204AB914269D0B769BF5C9F5462
:103E70000132F8E7706B10B1B0F57A7F17D94FF0C7
:103E8000FF3059E0C14F012087F8380096F828101C
:103E900096F82B0087F85010B6F82920A7F8512083
:103EA000C0B1022811D0012816D1012012E0022051
:103EB0000227FFF73FFCB548162100F8387F01754F
:103EC000716B016100F07AFC2CE00B3900200229B3
:103ED00038BF012087F85300012007F80E0FB08D7E
:103EE000F88196F82E003874B6F82F00788200F02A
:103EF0008AF8FEF792FE07F12A0000F05FFC3846D0
:103F000000F0C4FC97F8436040F6890000F0C2FB63
:103F1000062E0CBF00F0FB0140F0040140F68900C2
:103F200000F09AFE284600F04BFD984D85F85600AB
:103F3000FFF761F86C60002006B0BDE8F081934F98
:103F40004FF00008F86387F83880307887F844002D
:103F5000706800F091FA87F84500042087F80E8019
:103F600087F81480B874F0683864308AC0003882EA
:103F7000307DC000F87496F82400022802D0B17F8A
:103F8000022919D1F07FA0F1F101022902D3012801
:103F90007FF475AF164A4FF0010801968DF80C803A
:103FA00002CA01A8FFF71CF800287FF468AF0020C0
:103FB000A7F81780787503E03876F07F7975F87583
:103FC00000F021F80020FFF7B5FB07F1380000F002
:103FD000F5FB07F10E0000F059FC04A800F08FFD7E
:103FE000B08B00F001FE308C00F090FB9AE700BF30
:103FF000B000002080B5042000F038FD0220BDE8AC
:104000008040FCF7A9BC002000F046BD80B55F48A9
:104010000021FEF799FD4FF4C0704FF4C071FEF718
:1040200031FCBDE8804000F067BB00BF24060020E3
:10403000F0B50DF1140C089E01289CE8901010D0EA
:1040400000285FD10CEB0400002E18BF02302021A5
:10405000002F18BF182101EBC0004FF47A714843BC
:1040600052E019B9A2F10B00022804D30020012963
:1040700008BF0C2A00D101201425002F18BF0025ED
:10408000A5EB8205002E6FF0070618BF1035072A32
:1040900005EBCC0528BF08359700002818BF06EBB4
:1040A00082070C26072A38BF97003846002DC8BF64
:1040B000284401380C250C2C90FBF7F088BF2646CD
:1040C000571F022F28BF2646072A38BF0E25AC19D6
:1040D0000433023A00FB03408000013090404FF46B
:1040E0007A725043174A515C00220A290CD8DFE843
:1040F00001F006101316191B1D0B1F22250041F697
:10410000846201E00122002010440138B0FBF2F08B
:10411000F0BD43F60952F7E747F61222F4E74FF2F3
:104120002442F1E70A4AEFE7084AEDE7064AEBE7DF
:1041300042F6B102E8E745F26112E5E74AF2C3222E
:10414000E2E700BF786B000820A1070090D00300D1
:1041500048E8010080B500F033FC012100F0B9FC13
:10416000BDE8804000F0F6BC80B508480121FEF7AC
:10417000EBFC4FF4D7602D2100F06EFD00F0EFFC5A
:104180000348BDE8804000F0D7BC00BF24060020F3
:10419000FFFF0F0000F060BD00F06ABD10B50446DF
:1041A000FEF7C1FE012818BF10BD40F6231000F035
:1041B00071FA00F0F90040EA040140F62310BDE86E
:1041C000104000F049BD000000210D4AB0F5803FCD
:1041D00038BF012138BF00040901B0F1807F3CBF26
:1041E00008310002B0F1805F38BF043138BF0001F0
:1041F000000F81F01F01105C081AC0B2704700BFA9
:10420000946D0008074940F441700A6822F04002AA
:104210000A6008604FF4B8504860086840F04000F9
:104220000860704700000158B8B54E4C64232268FE
:10423000FEF79AFC294B0092009A3AB1009A013A93
:1042400000921A689207F7D5002201E001228260ED
:10425000FF251D7164252468C4EBC404C4F34C44D9
:104260006C430094009C34B1009C013C00941C6899
:10427000E407F7D001E00122826058680870104618
:10428000B8BD00BF18B5374C64232268FEF76CFC3C
:10429000124B0092009A3AB1009A013A00921A68C1
:1042A0009207F7D5002201E001228260197121688E
:1042B0006424C1EBC101C1F34C41614300910099F9
:1042C00031B10099013900911968C907F7D001E0AF
:1042D000012282605868104618BD00BF08000158CE
:1042E00081B00179012915D11E49096801EB41010D
:1042F000C1F34F31009109490A6822F400420A6073
:10430000009A013A0092009A002AF9D10A6842F410
:1043100000420A6001B000F007B800BF90040058E6
:10432000E948FDF789BC00BF81B00E4964220968E5
:1043300001EB4101C1F34B41514300910A490A6825
:10434000009B53B1009B9208013B00930B6802EA6B
:104350005302D207F3D1002002E002218160012044
:1043600001B070471C00002014040058E0B500F0B4
:104370007F000DF1070101228DF80700892000F070
:104380005DFC8CBDE0B51849884204D3E1208DF86E
:104390000600E9201EE01549884204D3D7208DF895
:1043A0000600DB2016E01249884204D3C1208DF8B4
:1043B0000600C5200EE00F49884204D375208DF811
:1043C0000600812006E00C49884205D36B208DF859
:1043D00006006F208DF807000DF1060198200222DB
:1043E00000F02CFC8CBD00BF01E9A43581F8A93296
:1043F0008144E52D010B6B1B41FC54192DE9F84359
:10440000194C814640F607008846A04706464FF4FF
:10441000D660A047074600F00F0540F2B160A04704
:104420003A0740EA0520114948BF0843C6F3C101D5
:104430000FA20123515C06F00702013A91400D4A98
:10444000B2FBF1F1B1FBF9F2082A38BF02235A435B
:10445000042A38BF0423594349094843C011C8F806
:104460000000BDE8F88300BF9546000800F0FFFF9C
:1044700004080A0C0048E80160B1074A0021B0298D
:1044800007D0535808318342F9D9501810F8040C5A
:104490007047FEE71F2070477C6B0008F1484078AA
:1044A000704700BF1CB504460DF10501142003221E
:1044B00000F0E2F8EB4881780129217010D009BBA7
:1044C0009DF805009DF806109DF80720207100203A
:1044D000A06048424008A0715042400860711CBD75
:1044E00040689DF8071020619DF805004042400893
:1044F00020739DF90600023080086073484240082E
:10450000A0731CBD20460021142201F021FE0F20C3
:1045100020701CBD7CB50E46044600200DF107013D
:1045200015468DF80700304600F04CF83278AA4264
:1045300084BF01207CBD9DF80700214600F08EF865
:1045400000207CBD012070477CB50020019040F622
:10455000E20000F09FF8144E044600F0FE0140F621
:10456000E200B04740F6E50000F094F8054600F0A0
:104570007F0140F6E500B0476FF07F4000F034FA6D
:1045800001A940F61900042200F090F8002000F084
:1045900083FA40F6E2002146B04740F6E50029469E
:1045A000B04701987CBD00BF594C0008E0B50DF143
:1045B00007011520012200F05FF89DF80700404236
:1045C00040108CBDBCB50C4605460DF1060113200C
:1045D000022200F051F8E0488178012907D1C07823
:1045E000012804D140F2027000F054F801E09DF877
:1045F000060028709DF807002070BCBD10B508B1FA
:10460000ED498860FEF764F80220FFF7C7FDEA4C29
:1046100000202070002000F03FFAFEF786FC012801
:104620000CD10120402100F073FA40F61110002156
:1046300000F012FB7F20FFF799FE09E040F6111011
:10464000202100F009FB40F61210202100F004FBAD
:10465000FEF767FC0120607010BD00BF10B5FEF7CB
:10466000C0F9EFF31084EFF3108072B61648FDF72F
:1046700097FB84F3108810BD10B5FEF7B2F9EFF385
:104680001084EFF3108072B60F48FDF767FA84F3D9
:10469000108810BDE0B501460B480DF1070201235B
:1046A000FDF7AAFB9DF807008CBD00BF10B5FEF713
:1046B00098F9EFF31084EFF3108072B60248FDF71B
:1046C0009BFB84F3108810BD2809002010B5144608
:1046D00000F044F92046BDE8104000F02DBAE0B5E6
:1046E0008DF807108DF806000DF106018F200222CB
:1046F00000F0A4FA8CBD000080B5C5200021002286
:1047000000F09CFAED480721417080BDE0B540BA49
:10471000ADF80600E948807800B18CBD0DF10601C6
:1047200040F2BE60022200F0A3FA8CBDE0B540BAB0
:10473000ADF80600E148807800B18CBD0DF10601AE
:1047400040F2BC60022200F093FA8CBDE0B58DF817
:104750000520120A8DF80310090A8DF80100000ADD
:104760008DF807301B0A8DF804208DF802108DF8A3
:1047700000006946082008228DF8063000F05EFA35
:104780008CBDE0B58DF807000DF10701A020FEF704
:10479000ADF89DF8070040280ED341080020CAB2AA
:1047A000202A02D301309108F9E700EBC100C1B221
:1047B00040F2067000F050FA8CBD00001CB5E449D0
:1047C00004460020CDE9000020788978814202D09B
:1047D00000F0B0F82178032942D8DFE801F0022286
:1047E000262DA089204A0023ADF80300D4E9010159
:1047F000B2FBF0F0020A8DF80200000C8DF80120E7
:104800006E4A8DF800004806C909FBF7B1FC010AA1
:104810008DF80700000C08228DF806108DF80500B1
:104820001AE0A0690422009016E0207D0E490422BF
:104830008DF80300206905E0A0890B490522ADF839
:1048400003006068B1FBF0F0010A8DF80200000C73
:104850008DF801108DF8000069468B2000F0EEF90C
:104860001CBD00BFA40000200000093DE0B58DF88C
:1048700006208DF804008DF807308DF8051001A989
:104880009520042200F0DAF98CBD00007FB5E34DDD
:10489000044600208DF80C00CDE901002078A978AD
:1048A000814202D000F046F82178032940D8DFE8A1
:1048B00001F0020D1A02667AF12E19D0F22E21D1E2
:1048C000062641F2210541F60F5016E0207C617C5E
:1048D0000622E8708DF806008DF80710608AADF8A2
:1048E0000800E0891CE0207B01228DF804001BE019
:1048F000022648F205054FF6FF70FFF717FF28461E
:10490000FFF704FF20798DF80B6009228DF806006F
:10491000D4F80500CDF80700A07A8DF80C00608867
:1049200000BA000CADF8040001A98C2000F086F953
:104930007FBD00BFE0B5B9498DF80700887020B988
:1049400040F2AC60002100F087F90DF107018A20E8
:10495000FDF7CCFF8CBD00BFA40000200A46014635
:10496000002000F05DB9E0B5FEF7DDFA01380DF189
:1049700007010122B0FA80F040098DF80700962067
:1049800000F05CF98CBD0000BCB5A44D044628784D
:1049900020B92046FFF7F6FC01202870074A600680
:1049A000E1090023FBF7E4FB00BA0422019001A90E
:1049B000862000F043F9BCBDA40000200048E801B7
:1049C000B0B50446FEF7ABFA022805D0012520B9A0
:1049D0000F2CC8BF022500E00225284621460222EE
:1049E00000F0C2F82846B0BDE0B58C490522FDF7BD
:1049F0003BFF0DF10501822000F020F98CBD00BFC6
:104A00001CB5044685480521417040F6AC0097214D
:104A100000F022F9200A0DF1050103228DF807406C
:104A20008DF80600200C8DF80500822000F006F9B4
:104A30001CBD00BF1CB50A0A8DF80710090C8DF8C3
:104A4000040006248DF80510010A000C8DF80620DC
:104A500006228DF803108DF802000DF1020194205A
:104A600000F0ECF86D4844701CBD00BFBCB50446B6
:104A700000200025FEF751FA0220FFF78FFB04F01B
:104A800007000DF1070101228DF80700842000F0D6
:104A9000D5F862484570BCBDE0B58DF807000DF152
:104AA00007018020FDF722FF9DF807100220002952
:104AB0005A4908BF012048708CBD00BFA4000020E7
:104AC000E0B58DF807000DF107019F20FDF70EFFFF
:104AD0008CBD012908D110B50446012807D1042056
:104AE000FFF75CFB022003E00120FEF716BA01206D
:104AF000022C08BF0320BDE81040FEF70EBA80B5B7
:104B000001464FF4D860082200F0B2F8002080BDC2
:104B1000E0B500F007008DF8071004228DF80400BE
:104B2000080A8DF80600080C8DF8050001A99720E9
:104B300000F084F88CBD0000E0B538490422FDF790
:104B400093FE0DF10501832000F078F88CBD00BFC5
:104B5000A4000020D1200021002200F06FB8D22054
:104B60000021002200F06AB8BCB514460D460128A9
:104B700012D104200F2D08BF06200021012201239D
:104B8000FFF774FE15F1110FD8BF6FF010050E2D51
:104B9000A8BF0E25182118E040F6D800FFF77AFDCF
:104BA00040F01E0140F6D80000F056F8042007211E
:104BB00000220123FFF75AFE15F1090FD8BF6FF04D
:104BC0000805162DA8BF1625382140F6E70000F08D
:104BD00043F80DF106018E2002228DF807408DF872
:104BE000065000F02BF8BCBD10B504460B48807889
:104BF00000B110BD4FF4D760FFF74CFDC4F30021A6
:104C000000F0FE0001444FF4D76000F025F8E1B257
:104C100040F2B960BDE8104000F01EB8A4000020CA
:104C200010B5FDF7DEFEEFF31084EFF3108072B6DF
:104C30001648FDF725F984F3108810BD10B5FDF76F
:104C4000D0FEEFF31084EFF3108072B60F48FCF73C
:104C5000AFFF84F3108810BDE0B503460B488DF814
:104C600007100DF1070219460123FDF72FF98CBD3E
:104C700010B5FDF7B6FEEFF31084EFF3108072B6B7
:104C80000248FDF723F984F3108810BD280900209D
:104C9000704700002DE9F04FADF5FE7D4D4DE86AFF
:104CA0008047DFF834B1BBF80400C0B14B4C0020A2
:104CB0004BA300210122ABF80400207994F806A050
:104CC000E67994F80080677894F805903E9001208A
:104CD00001F068F9B8F1770F08BF212F0AD063A35C
:104CE000FDF74EFD696B6FF07F400DF5FE7DBDE871
:104CF000F04F084740A3FDF743FD9BF803008145B3
:104D00004DD1A07801210130C7B23846FBF7CCFA6B
:104D100004F10A013A460646FBF75BFA3E984BA3BC
:104D200000210122CDE90006012001F03BF93046C7
:104D300001F08EFEE078C007D1D04A4BFDF720FD90
:104D40003FAC4FF480712046FBF76AFA02203E998F
:104D50006A468DF8FE0042F27710ADF8FC0046F688
:104D60006F308DF80111ADF806019BF803008DF846
:104D700002018DF800010BEB01004049007C8DF829
:104D8000030104F10C0050F8043B043942F8043BE1
:104D9000F9D13FAB34480ECBFBF7F4FB9FE78642DB
:104DA0009DD10BEB0900194F2146FF22A671007C13
:104DB000E0713846FBF70DFA15A30120002101220E
:104DC000CDE900A901F0EEF8AA6A3846FF21904724
:104DD00085E700BF806C000830000020240300201D
:104DE000526563656976656420736F6D6574686983
:104DF0006E670A0D0000000056616C69642048650A
:104E00006174686572730A0D0000000024040020BC
:104E100052657472616E736D697474696E67206D2A
:104E2000657373616765207061737365642062796F
:104E30002044657669636520256420746F2044658D
:104E4000766963652025640A0D0000004465766973
:104E500063652025642073656E74206D653A202596
:104E6000730A0D00B46D0008C40900204C69737406
:104E7000656E696E672E2E2E0A0D0000F40000008C
:104E80002DE9F04F8BB06D4801F006F9DFF8C0A1B5
:104E90006BA30220002100220026D0476D4D6EA397
:104EA00000210022E87800900220D04705F1280474
:104EB0006D4B4FF0FF31012200964FF00108204664
:104EC00001F0EAF92046052101F060FA204601F0E0
:104ED00075FA05F14004654B4FF0FF310122009651
:104EE000204601F0D9F92046142101F04FFA20465E
:104EF00001F064FA5E492846DFF888915E4A5F4B0C
:104F00005F4C40F8581F5B49D9F80C70D9F818B0BD
:104F1000C0E90332D9F81420C0E90141D9F80010E2
:104F20000A9288475848B84758A302200021002217
:104F3000D0475BA3022000210022D047FA205DA3C6
:104F40000021002200900220D04707275EA3022004
:104F5000002100220097D0474FF4C870CDE90078B7
:104F60000824D9F81C70162100220123089002A8F9
:104F7000CDE90566079680E850010120B847052075
:104F8000012107220123CDE90868CDE90064CDE9BC
:104F90000468CDE90666CDE902060120D847D9F8B4
:104FA00054200120FF21FF2790470120FBF7BCF987
:104FB0000220FBF7B9F90A98804704464648FF21CA
:104FC000FBF72EF940F6B830D9F8341000EB9450C6
:104FD0008847424A0220002101F0C6F8404A0420D6
:104FE000002101F0C1F8082E03D0A819013607747A
:104FF000F9E701203BA3002100220026A8744FF40A
:1050000080702882022000F0CDFF3BA4072E0AD03A
:10501000A819002100222346007C0090022000F005
:10502000C1FF0136F2E7E87D34A3002100220090A1
:10503000022000F0B7FF0BB0BDE8F08F2D04000890
:105040000A0D4C4F5241204D4553480A0D000000B7
:10505000A55F0008300000204445564943452049DB
:10506000443D25640A0D00004D2D00081D56000822
:10507000F52C0008492C0008C92C0008D12C000888
:105080001D2D0008806C0008000D99362D2D2D2D4A
:105090002D2D2D2D2D2D2D2D2D2D2D0A0D0000000A
:1050A0004C4F52415F4D4F44554C4154494F4E0A6D
:1050B0000D0000004C4F52415F42573D2564206B6C
:1050C000487A0A0D000000004C4F52415F53463DA4
:1050D00025640A0D0000000024040020954C0008FF
:1050E000E12D0008524F5554494E47205441424C3F
:1050F00045203D205B00000025642C0025645D0AEE
:105100000D000000FBF788BD7CB50F490446002068
:10511000CDE9000068464E68D1E903510430884764
:105120000090A8470546B047DDE9001212FA85F263
:105130000844064913048B42C4BF0130A2F57A72B9
:1051400091B2C4E900017CBD346D00080000E703A2
:1051500010B5C91A029B0024C0E90014D21A130426
:10516000828004D502F57A7201398280016010BD17
:1051700080B50D48016821F40041016001F000F99B
:1051800000F062FF094800F07DFF022000F07EFF82
:1051900000F0AAFF0120012100F0ACFF0120012155
:1051A000BDE8804000F0BCBF08000058F955000879
:1051B000B0B59AB008AC1C21201DFBF731F801A84E
:1051C0001C21FBF72DF8FBF7FBFD1E481E490025AF
:1051D0000A5822F018020A500122086862F34A2095
:1051E0000860086800F4C06000904FF00050CDE9FE
:1051F000102519904FF40030179018201690302089
:10520000CDE91420022013906020129081200B9091
:105210002420089000984FF0007018902046FCF76A
:1052200039F800B1FEE74F200795CDE90355059504
:105230000221CDE9010501A8FBF79AFE00B1FEE7C6
:105240001AB0B0BD90FCFFFF00040058704700008A
:105250005948FCF7EBBA00BF57480221FCF7BEBA29
:1052600055480021FCF7BABA53480121FCF7B6BAF9
:10527000024651480221FCF7B5BA00BF02464E482B
:105280000021FCF7AFBA00BF02464B480121FCF7F2
:10529000A9BA00BF4FF47A71A0FB0101800A40EA6D
:1052A0008150704780B5FDF763FA80BD03207047D9
:1052B00070B5044625484FF47A71056840F2FF3016
:1052C000A8434843860AFFF7C7FFE9432680890AB7
:1052D00041EA805070BD00BF2F484068704700BF52
:1052E0001A482D4900684968C043401A704700BFFA
:1052F00029480078012811BF002014480068C043E5
:10530000704700BF70B5244D2878B0B92A4C4FF0D3
:10531000FF362663FDF7A2F900F040F8FDF7B6FA74
:1053200020462663FCF764FA0020FFF7A1FF074838
:10533000012100682970C0436860002070BD00BF73
:10534000024815490068C04348607047082800407B
:10535000B0B58CB001AD044628212846FAF760FFAD
:1053600000F01CF84FF48071002001220B914FF0E7
:1053700000510890CDE906010748294640682044BD
:10538000C04302900C48FCF757FB08B1FBF71DF92E
:1053900000200CB0B0BD00BF2000002010B50548B3
:1053A000054C01210160FDF771FA4FF0FF302063D9
:1053B000002010BD5C280040F0080020F0B5EFF39D
:1053C0001082EFF3108372B6684B1E8A5C8AA64285
:1053D0000CD1C4F50076B5B2854216D8844214D9F2
:1053E000002501261C805D829E7010E00CD2C4F561
:1053F0000077BDB285421BD8864219D900251C8092
:1054000001245D829C7001E0361B25463446A4B21F
:10541000844207D90D80598A08446FF35F2058826F
:10542000002001E04FF6FF7082F3108800B2F0BD5B
:1054300025463C46EBE700BFEFF31080EFF3108109
:1054400072B64A49CA8A0132CA8280F3108870470C
:10545000B0B5464DEFF31084EFF3108072B6E88AD2
:1054600010B184F3108809E0FFF7E6FF698A288A03
:10547000884205D100F06EF884F310880020B0BD9A
:10548000AA786AB1012A11D12B880222AA700022BF
:105490001B1A2A80AB821B0408D100202A82AA7022
:1054A000814298BF4FF40071091AA982274984F3F9
:1054B00010880C1800F0E2FD2548A98AC268204631
:1054C000BDE8B040104700BFB0B5EFF31080EFF378
:1054D000108172B625498C78022C03D10024002259
:1054E0008C7004E00A8A8B8A1A446FF35F224B8A1D
:1054F0000A829A4221D0CD8A012D1ED16CB1012C95
:1055000011D10D8802248C700024AD1A0C808D827C
:105510002D0408D100220C828C70934298BF4FF466
:1055200000739B1A8B8280F310880848898A104484
:10553000074AD268BDE8B040104780F3108800F0F9
:1055400099FDBDE8B04000F005B800BF0C01002097
:10555000746D0008EFF31080EFF3108172B6034909
:10556000CA8A013ACA8280F3108870470C0300206F
:10557000124A116819B101F114028142F9D10029CE
:1055800018BF0121084670470C4A116809B1002371
:105590000B721060416100F013B800BF10B50749ED
:1055A00009680A46496921B10B6804689C42F8D829
:1055B00000E000215061416110BD00BFFC060020E9
:1055C0002DE9F041DFF8C48E0446D8F82000D8F861
:1055D000187080470546012026682072B847284485
:1055E000864203D2B8472844206000E02068D8F8FB
:1055F0000810BDE8F0410847BFB5054602A80C46B3
:10560000FFF782FDBDF90C00029B0090284601F0D7
:105610004FF82846FAF725FE2080BFBDB0B5C0B0D0
:105620000F48FDF76FFCC0B96C460D482146FAF7EC
:1056300089FF0C4D2146FF222846FAF7CAFD0AA32E
:1056400001200021002200F0ADFC08A3FDF798F82E
:105650000C48FF21826A2846904740B0B0BD00BF89
:10566000C4090020240400200A0D00005472616E59
:10567000736D697474696E67206D657373616765B6
:105680000A0D0000806C0008B0B5416E91B102684F
:105690000C4B0D4D91689268C1F34261520F5C5CF6
:1056A000695C9B5CAA5CC900D200B1FBF4F1B2FB5F
:1056B000F3F201E001220121A0F86810A0F86A20AD
:1056C000B0BD00BFAC6D0008A46D000810B5816AC4
:1056D000CA0706D00268C36A546824F4003423431E
:1056E00053608A0706D50268036B546824F480343B
:1056F000234353604A0706D50268436B546824F479
:105700008024234353600A0706D50268836B5468DC
:1057100024F4004423435360CA0606D50268C36BD1
:10572000946824F48054234393608A0606D5026863
:10573000036C946824F40054234393604A060FD505
:105740000268436C546824F480141C43B3F5801F32
:10575000546005D1836C546824F4C004234353601F
:10576000090606D50168C06C4A6822F4002210437D
:10577000486010BDBCB504460020C4F88C00FBF79F
:1057800047FA054620680168090707D56FF07E4093
:105790004FF40011FDF74EF950B92068006840073A
:1057A00008D56FF07E404FF48001FDF743F908B152
:1057B0000320BCBDFDF775F984F88000E066BCBD30
:1057C000806A0021A0F85E10A0F85610FCF764BCB7
:1057D000B0B5846A2068D4F88410D4F88850826800
:1057E000120608D5212906D10020A4F8560020462B
:1057F00000F052F820688068400607D5222D05D1B8
:105800000020A4F85E00204600F02AF8D4F88C00AE
:1058100040F01000C4F88C002046BDE8B040FCF712
:105820003BBC0168806A0968890648BFFCF7B4BEC2
:105830000021A0F85610016851E8021F026821F00B
:10584000800142E80213002BF5D14DF808EDFDF779
:105850006CF95DF808EBF8D17047806AFCF7A2BEDE
:1058600010B50168FDF76BF8FBD1E149026852E819
:10587000022F03680A4043E80224002CF6D1C16ECF
:10588000012902D1FDF7A1F9FCD12021C0F888102F
:1058900000210167C16610BD016851E8001F026860
:1058A00021F0C00142E80013002BF5D14DF808EDBE
:1058B000FDF727F85DF808EBF8D12021C0F8841037
:1058C00070470168D0F88820222A39D1B0F86020CA
:1058D0004B6A1A40836D23F8022BB0F85E20013A20
:1058E000A0F85E208365B0F85E200AB170470168B9
:1058F0004DF808EDFDF723F85DF808EBF7D14DF80A
:1059000008EDFDF780F95DF808EBF8D12021C0F82B
:10591000881000210167C26E012A18BFFCF7DEBDA6
:10592000C1664DF808EDFDF750F95DF808EBF8D1C8
:105930000168CA69D20644BF10220A62FDF780B826
:10594000FDF7B6B82DE9F84F01680446CF69FDF7B9
:1059500061F85CD1B4F8681000295DD0A44EFDF761
:1059600050F8B80658D52068A16D426A2A4021F83F
:10597000022BB4F85E20013AA4F85E20A165C76945
:1059800079071CD0FA0718BFB8F1000F01D0FDF756
:105990002FF8BA0704D5B9F1000F01D0FCF7EFFFDB
:1059A000002904D5B9F1000F01D0FCF7DFFFD4F8CE
:1059B0008C0020B12046FCF76FFBC4F88CB0B4F823
:1059C0005E000028CDD1206850E8000F216820F447
:1059D0008070FDF7CFF8F6D1FCF7BAFF3040FDF745
:1059E0004FF8F9D1FDF769F80DD1C4F86CB0FCF7A8
:1059F00023FFFCD12068C169C90644BF10210162A0
:105A0000FDF772F8ADE72046FCF768FDA9E7886965
:105A100040F0080088611AE0B4F85E00B8B1B4F84C
:105A20006810884213D2206850E8020F216820F0E5
:105A30008050FDF725F8F6D106482067206850E829
:105A4000000F216840F02000FDF794F8F6D1BDE882
:105A5000F88F00BFC35800080168D0F88820222AB8
:105A60003AD1B0F86020496A1140826D1170B0F8E7
:105A70005E100139A0F85E10816D01318165B0F8CA
:105A80005E1001B1704701684DF808EDFCF757FF53
:105A90005DF808EBF7D14DF808EDFDF7B4F85DF8C7
:105AA00008EBF8D12021C0F8881000210167C26EF0
:105AB000012A18BFFCF712BDC1664DF808EDFDF7CD
:105AC00084F85DF808EBF8D10168CA69D20644BFD2
:105AD00010220A62FCF7B4BFFCF7EABF2DE9F84FC9
