:020000040800F2
:10000000201500204D0100086B2C0008172A00085D
:10001000692C000825040008A16C000800000000FD
:1000200000000000000000000000000075540008FF
:10003000BB0500080000000051350008A956000863
:100040006701000867010008F5570008670100080C
:1000500067010008670100086701000867010008E0
:10006000670100086701000867010008E90400084B
:10007000670100086701000867010008F104000833
:1000800067010008670100086701000867010008B0
:1000900067010008670100086701000867010008A0
:1000A0006701000867010008670100086701000890
:1000B0006701000867010008670100086701000880
:1000C0006701000867010008670100086701000870
:1000D000A1670008A9670008670100086701000818
:1000E00067010008BD050008E9370008670100083E
:1000F0006701000867010008670100086701000840
:100100006701000867010008054B00086701000847
:10011000670100086701000867010008670100081F
:10012000670100086701000867010008670100080F
:100130006701000867010008DFF80CD000F0D4F870
:1001400000480047E56C000820150020064880475D
:1001500006480047FEE7FEE7FEE7FEE7FEE7FEE7AC
:10016000FEE7FEE7FEE7FEE7F15700083901000869
:100170002DE9F05F0546002092469B4688460646DC
:10018000814640241BE0284641464746224600F06F
:100190009AF853465A46C01A914110D31146184650
:1001A000224600F081F82D1A67EB01084F462246DF
:1001B0000120002100F078F817EB00094E41201EC5
:1001C000A4F10104DFDC484631462A464346BDE837
:1001D000F09F40EA01039B0703D009E008C9121F02
:1001E00008C0042AFAD203E011F8013B00F8013BF1
:1001F000521EF9D27047D2B201E000F8012B491E1D
:10020000FBD270470022F6E710B513460A460446B3
:100210001946FFF7F0FF204610BD10B5044604E074
:100220000B7800F8013B03B1491C521EF8D220465E
:1002300010BDCAB2401E10F8011F8A4202D0002928
:10024000F9D100207047421C10F8011B0029FBD196
:10025000801A704730B504460020034600E05B1C5E
:10026000934203D2E05CCD5C401BF8D030BD30B58A
:1002700005460020034600E05B1C934205D2EC5C7F
:10028000C85C201A01D1002CF6D130BD10B548430E
:10029000044607F011F8002805D00021002C02D0F8
:1002A000641E0155FAE710BD202A04DB203A00FA4B
:1002B00002F1002070479140C2F1200320FA03F3BD
:1002C000194390407047202A04DB203A21FA02F0BB
:1002D0000021704721FA02F3D040C2F12002914080
:1002E0000843194670470000064C074D06E0E068D9
:1002F00040F0010394E8070098471034AC42F6D36D
:10030000FFF71EFFF87600081877000870B586B072
:100310000446002502200226059502F099FB0120E3
:10032000CDE903560290104830F814500D4850F8AB
:100330002440019501A9204600F09EFB2046294655
:10034000002200F065FC002006B070BD80B50549B4
:1003500051F82020044931F81010104600F050FCEC
:10036000002080BD4C74000844740008032819D88C
:10037000F8B50D4DC600264C274F082105F58070B5
:10038000F040C2B22046B84708481021F040C2B23F
:100390002046B84725FA06F02021C2B22046B847C9
:1003A000BDE8F84000207047000001010001010095
:1003B0000020704770B586B00024059402F054FB0D
:1003C0000320144ECDE903400120114C029010206F
:1003D000019001AD20462946B047202029460190D2
:1003E0002046B0470820294601902046B0470A4DD4
:1003F000204620210022A847204610210022A8479D
:10040000204608210022A847002006B070BD00BF8A
:1004100000080048790A0008110C00080120704704
:1004200001207047FEE7000080B51C4801F0CCFDBC
:1004300002480821BDE8804000F09CBA0004004852
:1004400010B502F097FB154C0421204601F0CEFEBA
:10045000642000F07FFA02F0B9FCBDE81040FFF71D
:10046000E3BF00BFB0B502F085FB0C4C0421204671
:1004700001F0BCFE0A4D1E20A84702F0A7FC1E207A
:10048000A8472046042101F0B1FE1E20A84702F033
:100490009DFCBDE8B040FFF7C7BF00BF3C0900208E
:1004A000550900087CB50E4C05462046FFF7CBFEEB
:1004B000C0F596762846FFF7C6FE864205D3094961
:1004C00028780A89A054501C0881064C0120E0704D
:1004D000684605F0EBF8DDE90001C4E904017CBDE4
:1004E0000C07002038000020064800F03FB900BF8C
:1004F00080B5044800F03AF90348BDE8804000F0B8
:1005000035B900BF980800203808002010B5104900
:10051000436C104C01F1640223F00303C2640268CF
:10052000A24238BF04F57E711944142381646FF030
:100530000701A24251FA82F1B1FBF3F128BF073162
:10054000012201F01F0102FA01F1016510BD00BF97
:100550001C0802400804024010B543680749012402
:10056000543003F07F0301F14002013B01EB8301B2
:1005700003F0030304FA03F30EC010BD00090240A8
:10058000F0B500F14C0670CE656016B1D0E91645A5
:10059000656004688568D0E91060012700F01C00E0
:1005A000102D07FA00F070600846636008BF10461F
:1005B000A06008BF0A46E260F0BD70474FF40050EB
:1005C00000F050BAFEE750B3B0B590F825100229FC
:1005D00027D1016800F140041CCC0D6803F01C0316
:1005E00025F00E050D60256825F4807525600C68E2
:1005F00024F001040C60012101FA03F35360D0E9F7
:1006000013235360426D32B1136823F48073136077
:10061000D0E91623536080F82510002104E0012161
:1006200007E00421C1630121002280F82420BDE8F5
:10063000B04008467047B0B590F8251002292BD17C
:100640000168D0E91032846C0D6825F00E050D604C
:100650000D6825F001050D60216821F4807121608D
:1006600002F01C01012202FA01F15960D0E91313D2
:100670004B60416D31B10B6823F480730B60D0E99E
:1006800016134B60002180F8241080F82520826B1F
:100690002AB19047002102E00421C16301210846EC
:1006A000B0BD60B10068CB06026805D5C90254BF71
:1006B00022F4801242F48012026000207047012070
:1006C00070470000F8B54FF0010C002846D00368D1
:1006D000254A7E4F0446196802F5806521F0010124
:1006E000196020490E1DB3423CBF0025C4F202052B
:1006F00038BF07F580671F441420B7FBF0F0870070
:10070000C4E910570025B3421D6038BF111D1C22DB
:1007100002EA80000CFA00F008602046FFF7F6FEBF
:10072000606804F148030ECB013803280D60536064
:1007300007D82046FFF710FF04F1540207CA0560EE
:100740004A60E563C4E91555E565C4E90B55C4E99C
:100750000D5584F8245084F8255000E001252846E2
:10076000F8BD00BF0404024000000240F0B5D0E92B
:1007700010230168042403F01C0316680D689C40D4
:10078000344201D06F071BD402249C40344201D074
:10079000AF071FD426FA03F4240735D52C0733D529
:1007A0000C6824F00E040C60012101FA03F353607D
:1007B0000022C16380F8242080F82510416B1FE0DF
:1007C0000B689B0603D40B6823F004030B60546092
:1007D000016B15E00A68920606D40A6822F00A0244
:1007E0000A60012280F82520002280F82420074A90
:1007F00002F17C03994288BF02F580621460C16AED
:1008000011B1BDE8F0400847F0BD00BF0400024050
:1008100000284BD0F8B5044602202B4984F8250067
:1008200004F10806206801F1080268CE9042274AC8
:1008300038BFA1F5806138BF02F5806214270244F9
:10084000B2FBF7F29200C4E9101247F6F0720168A9
:100850009143016045EA0301626931431143A26992
:100860001143E2691143226A114302681143016096
:100870002046FFF74BFEA06804F14803B0F5804F17
:1008800006BF00206060606800F07F050ECB013875
:1008900003280D6053600BD82046FFF75DFE04F17E
:1008A0005402002307CA03604A6005E00120704734
:1008B0000020C4E91500E06500200121E06384F810
:1008C000240084F82510F8BD00040240F8FBFDBFA9
:1008D000B0B5044690F82400012804BF0220B0BD42
:1008E00002F0F4F913D1022084F825000020E0631F
:1008F0002068056825F0010505602046FFF740FEE9
:100900002068226B01684AB141F00E010CE0002022
:1009100084F824008020E0630120B0BD21F00401B0
:100920000160016841F00A010160A16C0A68D2030C
:1009300003D50A6842F480720A60616D19B10A68D1
:1009400042F480720A60016841F0010101600020F8
:10095000B0BD0000B0B5044600F060F90546CF48D0
:10096000611C007818BF044400F058F9401BA042F5
:10097000FAD3B0BD2DE9FC4F9D4A4FF000089042DC
:100980004FF0070208BF02220024002300920191C9
:1009900031FA03F608BFBDE8FC8F012202FA03F624
:1009A00016EA010E57D0944A4FEA930CB0F1904FDB
:1009B00052F82C9007D0914ADDF800A0904208BF71
:1009C0004FF0010A01E04FF0000A08F00C0B07217C
:1009D000424601FA0BF80AFA0BF509EA0807AF429A
:1009E0001BD18449D1F8805025EA0E05C1F880500A
:1009F000D1F8845025EA0E05C1F884500D6825EA27
:100A00000E050D604D6825EA0E054D607A4951F8D6
:100A10002C5025EA080541F82C5003210768904620
:100A200001FA04F50F212F43076002F01C0701FAB9
:100A300007F76FF0030101EA53020244116AB94358
:100A400011628168A94381604168B1434160C16816
:100A5000A943C160019908F104080234013397E702
:100A60007047000003490A68024208BF70470860E7
:100A7000FFF7F6BF0C0800582DE9F84F5C4A5E4FAF
:100A80004FF000094FF0010B4FF0000890424FF07B
:100A9000070208BF0222002300920D6835FA03F214
:100AA00008BFBDE8F88F0BFA03F215EA020A00F05E
:100AB00099804E6806F0030CACF10105012D19D8A0
:100AC000032404FA08F5846824EA050ECC6804FAC5
:100AD00008F444EA0E048460C6F3001404FA03FE2A
:100AE000446824EA020242EA0E026FEA050E4260FE
:100AF0005A000CE0032202FA08F2BCF1030F6FEA7D
:100B0000020E424603D142464FF0030C1FE0C46878
:100B10008D6804EA0E0495402C43BCF1020FC460BA
:100B200015D109F01C040F2505FA04FC6FF003052C
:100B300005EA53060644356A25EA0C0C0D6905FAE8
:100B400004F444EA0C0434624E6806F0030C0468B2
:100B50000CFA02F204EA0E04224316F4403F02604B
:100B600040D09A0857F822C0B0F1904F05D0234CDE
:100B7000009DA04208BF012500E0002509F00C04FB
:100B80000726A64005FA04F42CEA0606BC463443C0
:100B900047F82240174A1746D2F880204D6842EAAB
:100BA0000A04EE0358BF22EA0A04C7F88040AE03E5
:100BB000D7F8842042EA0A0458BF22EA0A04C7F898
:100BC0008440EE023A6842EA0A0458BF22EA0A0464
:100BD0003C60AD027A6842EA0A0458BF22EA0A047D
:100BE0007C60674609F1040908F10208013354E703
:100BF00000080048000800580800014000040048B0
:100C0000426902EA0103914341EA0341816170476D
:100C10001823002A08BF2823C150704705480068E0
:100C2000704700BF1D48034900780A6810440860F7
:100C3000704700BF180B002080B5032000F078F843
:100C400000F08EFA504908600F2000F007F808B154
:100C5000012080BD00F024F8002080BD70B50F4E4B
:100C600004463078B8B100F07BFA31784FF47A72EC
:100C7000B2FBF1F1B0FBF1F001F064F901250F2CAA
:100C80000AD848B94FF0FF3021460022002500F075
:100C900029F8746000E00125284670BD0C00002092
:100CA0007047000000280CD400F01F010122400909
:100CB00002FA01F1034A42F82010BFF34F8FBFF34D
:100CC0006F8F704780E100E0002808D400F01F011A
:100CD0000122400902FA01F1014A42F8201070474E
:100CE00000E100E0F0B5184B4FF0FF361C68C4F38C
:100CF0000224E51E84F0070438BF002506FA05F734
:100D0000BA43042C28BF042406FA04F4A14300F0DB
:100D10000F04A940043C11432344044A09010C3345
:100D2000B0F1FF3FC8BF83181970F0BD00E400E0C8
:100D300005494FF6FF030A681A4060F30A22034888
:100D400010430860704700BF0CED00E00000FA059A
:100D500010B521483222016821F4804101600A491E
:100D600009685143094AB1FBF2F100224469013993
:100D700042F10003A40501D5002BF7D140690321FE
:100D8000800501EAE07010BD2000002040420F0005
:100D9000114802F0CAB900BF0F49022301280A68AE
:100DA00063F302020A601D490A6842F004020A6005
:100DB0000FBF30BF40BF20BF20BF01F08EBF00BFBC
:100DC0000548006800F4C060704700BF0248016831
:100DD00041F48071016070470004005810B50C4662
:100DE0000D49096801F4007118B139B9FFF7D0FF56
:100DF00004E019B1FFF7ACFF00B110BD0748012CAA
:100E0000016821F00401016004BF30BF10BD40BF84
:100E100020BF20BF10BD00BF1404005810ED00E03B
:100E2000F8B504468078544EC00742D0FFF7CEFF95
:100E3000FFF7F4FE0546D6F8F403C00506D4FFF725
:100E4000EDFE401B0228F6D9032533E0606BD6F88F
:100E5000841001F44071814224D0D6F88410D6F871
:100E6000842042F48032C6F88420D6F8842022F40C
:100E70008032C6F8842021F4407289070146C6F802
:100E800084200FD5FFF7CAFE054641F28837D6F811
:100E90008400800705D4FFF7C1FE401BB842F6D995
:100EA000D2E7616BD6F8840020F440700843C6F89E
:100EB000840000252068C10702D0616802F02EF985
:100EC000810702D5A16802F029F9810605D52169BB
:100ED000F26F22F440621143F167810502D5216A65
:100EE00001F0EAFE410502D5616A01F0E5FE010567
:100EF00002D5A16A01F0E0FE410603D5606901F068
:100F0000C3FD2068010603D5A06901F0BDFD20687E
:100F1000C10503D5E06901F0B7FD2068C1060CD515
:100F2000E168F26F22F440720A43B1F5807FF26704
:100F300003D1316841F08071316001040AD5216B21
:100F4000F26F22F040420A43F26719B9316841F06A
:100F50008071316040040CD5E06AF16F21F040519E
:100F60000143B0F1005FF16703D1306840F4803095
:100F700030602846F8BD00BF0C0000582DE9F8434A
:100F8000002800F0B780734F05460C46386800F023
:100F90000700884211D2386820F00700204302F091
:100FA00005F90646386800F00700A04205D0FFF7B3
:100FB00035FE801B0228F5D96EE02868B9467C4FC3
:100FC000810711D5A868396821F0F001084302F0C3
:100FD000EDF806463868C00305D4FFF71FFE801BF6
:100FE0000228F7D958E02868810615D56869D7F82E
:100FF000001121F0F0010843C7F80001FFF70EFED1
:101000000646D7F80001800305D4FFF707FE801BD2
:101010000228F6D940E02868410616D5A869D7F815
:10102000001121F00F0141EA1010C7F80001FFF78D
:10103000F5FD0646D7F80001C00305D4FFF7EEFD25
:10104000801B0228F6D927E02868410711D5E868F7
:10105000396821F4E061084302F0A8F806463868D0
:10106000800305D4FFF7DAFD801B0228F7D913E0CF
:101070002868010714D52869396821F4605141EACC
:10108000C00002F093F806463868400307D4FFF723
:10109000C5FD801B0228F7D90320BDE8F883286826
:1010A000C0071CD1D9F8000000F00700A04224D9E5
:1010B000D9F8000020F007002043C9F80000FFF72E
:1010C000ADFD05464846D9F8000000F00700A042F3
:1010D00013D0FFF7A3FD02F01DF8F3D930E06868E4
:1010E0004FF0B04198B103282CD002282ED10968C6
:1010F00089030FD40120BDE8F88300F031F81649C8
:10110000086016480068BDE8F843FFF7A7BD096806
:101110008907EFD5396821F00301084302F046F84A
:10112000064641F288386868396801F00C01B1EB75
:10113000800FB7D0FFF772FD811B03204145F2D924
:10114000BDE8F88309688901D4D5E3E70968490552
:10115000D0D5DFE70040005820000020100000201C
:1011600080B500F029F812493C22096802EA910191
:10117000024A5158B0FBF1F080BD00BF3073000847
:1011800080B5FFF7EDFF0A490A4A0968C1F3022159
:1011900052F82110C84080BD80B5FFF7E1FF044937
:1011A000044A0968C1F3C22152F82110C84080BD29
:1011B000080000587073000810B5364951F8042C27
:1011C000086812F00C0205D00C2A15D100F00300BB
:1011D000012811D14FF0B0400368006800F008000A
:1011E0001B0705D4B8B9D1F88800C0F303201CE070
:1011F000B0B9D1F8880011E02748042A1ED0082A87
:101200001BD14FF0B0421268D2025CBF44F600001E
:10121000C0F2E81012E04FF0B0400068002004E097
:101220004FF0B0400068C0F303101C4B002A53F885
:101230002030184618BF002001E00020002351F89C
:10124000042C02F00C020C2A22D1086800F00302E0
:101250001148022A0CD0032A09D14FF0B04212687B
:10126000D2025CBF44F60000C0F2E81000E018466D
:101270000A680B6809680124C2F3062204EB517165
:101280005043C3F302120132B0FBF2F0B0FBF1F0B5
:1012900010BD00BF0C0000580024F4005874000872
:1012A0002DE9F047002800F05981DE4C8246606845
:1012B00000F00C08A06800F003099AF8000080060E
:1012C00027D49AF80000C00770D0B8F1080F63D097
:1012D000B8F10C0F08BFB9F1030F5DD04FF0B0416A
:1012E000DAE901020B6823F480131A43B0F5803F5A
:1012F0000A6009D0B0F5041F40F096814FF0B0406D
:10130000026842F400120260086840F4803008600D
:1013100097E1B8F1000F1DD0B8F10C0F08BFB9F17B
:10132000010F17D04FF0B0463068DAF820100029CE
:1013300000F0348140F0010001F04CFD05463068BA
:10134000800700F13A81FFF769FC01F0E3FEF6D96E
:10135000BDE8F0874FF0B0410868800704D5DAF89F
:101360002000002800F0FA80DAF828000968090750
:1013700059BFD4F8901009094FF0B041096801F045
:10138000F001884240F2D48002F0C4F9002840F015
:10139000E58001F07DFCE4E04FF0B04000688003A0
:1013A00004D5DAF80400002800F0D8809AF800008C
:1013B000800730D5B8F1040F1BD0B8F10C0F08BF6F
:1013C000B9F1020F15D04FF0B0463068DAF81010BE
:1013D000002900F0468140F4807001F0FBFC0546D6
:1013E000306840050FD4FFF719FC01F093FEF7D9E0
:1013F000AEE74FF0B0400068400504D5DAF81000C1
:10140000002800F0AB80DAF81400216821F0FE41DA
:1014100041EA006020609AF8000000072CD49AF896
:10142000000040074FD4DAF82C0010B3B8F10C0FCD
:1014300040F0C680012800F09180DAF83010A068F2
:1014400000F003028A4240F08980DAF8341000F09C
:1014500070028A4240F08280DAF8381000F4FE42CE
:10146000B2EB012F7AD1DAF8441000F060408842E4
:1014700074D10020BDE8F087D4F89010DAF8180095
:1014800000287AD0DAF81C0001F01002904200F037
:101490008D8101F00302022A60D0C90700F07F812C
:1014A000D4F8900020F0010001F0B8FE0546D4F811
:1014B0009000800740F17181FFF7B0FB411B0320D2
:1014C0001129F4D944E7D4F8FC03C0050ED4FFF782
:1014D0007DFCFFF7A3FB0546D4F8FC03C00505D44B
:1014E000FFF79CFB01F016FEF6D931E7DAF80C00A5
:1014F000002800F0C580852801D0052805D1D4F842
:101500008C0040F00400C4F88C00FFF787FB01F06A
:1015100010FD40F00100C4F88C00D4F88C00800766
:1015200064D4FFF77BFB411B0320B142F5D90FE7E1
:101530004FF0B0410A6842F008020A600A6822F0DF
:10154000F00202430A60DAF82410226822F47F4293
:1015500042EA0121216002F0DDF810B10120BDE86E
:10156000F087FFF7FDFD9B4908609B480068FFF787
:1015700075FB00287FF4ECAEA3E621F0010001F03A
:101580004DFE0546D4F8900080077FF548AFFFF781
:1015900045FB411B03201129F4D9D9E620F00100B5
:1015A00001F018FC0546306880077FF58AAEFFF72A
:1015B00035FB01F0AFFDF6D9CAE601F069FB80E624
:1015C0004FF0B0460228316821F08071316071D14E
:1015D000FFF724FB05463068800140F18180FFF76A
:1015E0001DFB411B03200A29F5D9B1E6DAF80C00EE
:1015F00040F00400852840F09980FFF70FFB01F0D0
:1016000098FC40F08000C4F88C00D4F88C000005F1
:101610003FF509AFFFF702FB411B0320B142F4D9AC
:1016200096E600BF040000584FF0B046002831682D
:1016300021F480313160316821F40011316000F013
:101640009E80FFF7EBFA05464FF0B0463068800306
:101650003FF5ACAEFFF7E2FA411B03206429F5D950
:1016600076E620F4807001F0B5FB05463068400551
:101670007FF5D1AEFFF7D2FA01F04CFDF6D967E65F
:10168000FFF7CCFA0646D4F88C0041F2883920F0F6
:101690008000C4F88C00D4F88C0027460405FFF7BE
:1016A000BDFA0546002C55D5A91B03203C464945EB
:1016B000F1D94DE6A068494920F00300A060A06878
:1016C0000840A060FFF7AAFA0446306880017FF561
:1016D000D0AEFFF7A3FA011B03200A29F5D937E69C
:1016E000A0683F490AF130070840EECF0843104395
:1016F00040EA032028434FF0B04530433843A06010
:10170000286840F080702860A06840F08050A06099
:10171000FFF784FA0446286880013FF5AAAEFFF778
:101720007DFA011B03200A29F5D911E6FFF776FAA5
:1017300001F0FFFB20F08000C4F88C00D4F88C008E
:1017400000057FF570AEFFF769FA411B0320B14237
:10175000F4D9FDE5D7F88C003C4641F2883620F0FC
:101760000100C7F88C00D4F88C0080077FF55BAED1
:10177000FFF754FA411B0320B142F4D9E8E5FFF723
:101780004DFA0546306880037FF510AEFFF746FA44
:10179000411B03206429F5D9DAE5DAF81C00D4F8F6
:1017A000901021F010010843C4F89000D4F8900084
:1017B00040F0010001F032FD0546D4F890008007AA
:1017C0003FF52DAEFFF72AFA401B1128F5D903206B
:1017D000BDE8F0872000002010000020FFFFFEEE93
:1017E0008C80C11170470000034850F821007047F9
:1017F000014840F82120704700B1004090F82C20AB
:101800000221012A0DD080F82D10BC49734601F049
:101810004CFB9E4642F020020A60734601F07AFAC1
:101820009E460846704700BF80B503F0E7FF0130D1
:10183000BDE8804003F0EEBF10B5044621480168C2
:10184000490604D5402181602046FFF7EDFF0120C5
:1018500084F82D0010BD00BF90F82C200221012A31
:1018600012D080F82D10A549734601F01EFB9E464C
:1018700042F080020A60A34A136843F48023136095
:10188000734601F047FA9E460846704705F040B996
:1018900070B50C4D04462868216B01EA0006F0077C
:1018A00004D00120A8602046FFF7F0FFB00704D560
:1018B0000220A8602046FFF795FF012084F82D0044
:1018C00070BD00BF54280040B0B590F82C30022203
:1018D000012B2ED0894BCA2480F82D20DC605324A4
:1018E000DC606FF40854B1F5807F08BF6FF4885452
:1018F0001D682C401C603424B1F5807F08BF2C2467
:10190000E55825F00045E55008BF01225A64FF2242
:10191000DA6000226FF0020380F82C20B1F5807F9E
:1019200008BF6FF00103016B19400163012180F8CA
:101930002D101046B0BD00BF70B588B3044690F8B6
:101940002D0028B9002084F82C00204600F03EF835
:101950000220794D84F82D00CA20A8615320A86187
:1019600001F081FAC8B9E8681749261D0840E86007
:101970004ECEA06931430843E9680843E86043EA72
:1019800002406860D4E909012A6822F4F852104341
:101990000843286001F074FA20B1FF21A96170BDED
:1019A000012070BD6069D4E90712EB6823F0604341
:1019B0001A4311430843E860FF20A861012084F81E
:1019C0002D00002070BD00BFBFFF8FFB10B590B091
:1019D000044601A830210430FEF714FC20681749A2
:1019E000884229D14FF480700E904FF480300190DE
:1019F00001A8FFF715FA08B1FEF7E4FD1048002230
:101A0000816B41F400418163016841F480610160B0
:101A10000021006800F480600F900F980220FFF70B
:101A200061F90220FFF750F92A2000210022FFF778
:101A300059F92A20FFF748F910B010BD00280040DE
:101A4000580000582DE9F84301F0C7F954D084F844
:101A50002D000120294F01F0E5FB01D1002021E0FC
:101A600072B16869B0F1803F07D0B0F5000F04D0C3
:101A7000396849065CBF0021E97001F038F911E0CE
:101A80003868DFF87C9040065CBF0020E87028785A
:101A9000C84780466878C84701F0F8F901F0D7FADE
:101AA00001F0E6FB01F085FB0ED101F02BFC19BF24
:101AB000B862A869D5E906010843F862686801219F
:101AC000B8654FF488500DE001F0FBFB19BF386397
:101AD000A869D5E906010843786368680221F865BA
:101AE0004FF408503A68104338600648026842F4E0
:101AF0000032026001F028FABDE8F883182800409F
:101B0000F537000880080058B0B50B4D286820F064
:101B100020002860FFF782F804462868800644BF4A
:101B20000020B0BDFFF77AF8001BB0F57A7F84BFC4
:101B30000320B0BDF1E700BF0C280040014801F0D0
:101B4000FEB900BF10E000E029B1012918BF7047BD
:101B50004FF4807000E08020CB498968084700BFBF
:101B6000C9488168402008472DE9F04101F088FB11
:101B700002D16079012802D10220BDE8F08101F094
:101B800033F9EE490868884601F069FA394602F0EF
:101B90006BFF20460021002702F066FFAF4204D20F
:101BA00001F049FB01370136F8E701F0C3FA01F013
:101BB000BAF818BF0120BDE8F08100BF2DE9F0415F
:101BC00001F05EFB02D16079012802D10220BDE85C
:101BD000F08101201E4617460D466071204602F036
:101BE00071FF05F0EF00D5498438B0FA80F08846DF
:101BF00040092071086801F032FA294602F034FFEA
:101C000036B117F8011B204602F02EFF013EF7E720
:101C1000D8F80000842D40F40040C8F8000002D03D
:101C2000204602F073FF01F07EF818BF0120BDE8E6
:101C3000F08100BF9448816820200847924881685D
:101C4000102008477CB5044600200DF10602122141
:101C50000223ADF806002046FFF786FF9DF80760D7
:101C60009DF80650F00702D0204600F009F9B007B1
:101C700002D5204600F0F6F8700702D5204600F0A5
:101C800091F8300702D5204600F0F6F8F00602D5AC
:101C90002046FFF7D3FFB00602D52046FFF7CAFF64
:101CA000700602D52046FFF75BFF300604D505F02D
:101CB00001012046FFF748FFA80702D5204600F0A3
:101CC000D5F80DF10602204602210223FFF776FF28
:101CD0007CBD0000BCB510B30446807920B900205B
:101CE0006071204600F046F802201E4A6423A0716D
:101CF0001D48815821F4004181501C490968C1EBFD
:101D0000C101C1F34C4159430191019949B1019B72
:101D1000013B019383585B04F7D4002503E00125C0
:101D20001DE00125A560D0F8882042F40042C0F8EB
:101D300088200F4A136843F480531360026842F40A
:101D4000006202604FF40062026131B1206802F06B
:101D50004BFE0020A060012020710120A0712846C8
:101D6000BCBD00BF8CFCFFFF080400582000002011
:101D700090080058E0B50A480022016841F00101CE
:101D800001600021006800F00100019001983220FC
:101D9000FEF7A8FF3220BDE88C40FEF795BF00BFDC
:101DA0006400005838488168042008472DE9F8434A
:101DB00001F066FA02D16079012802D10220BDE863
:101DC000F88301F011F85D49DFF8748108688946ED
:101DD00001F045F91E21C04720463946C04720463C
:101DE00000210027C047AF4204D201F024FA013796
:101DF0000136F8E701F0B4F800F095FF18BF0120B4
:101E0000BDE8F8832DE9F84301F03AFA02D1607990
:101E1000012802D10220BDE8F88300F0E5FF474920
:101E2000DFF81C810868894601F019F91D21C047B7
:101E3000390A2046C047F9B22046C0472046002153
:101E40000027C047AF4204D201F0F5F9013701364F
:101E5000F8E701F085F800F066FF18BF0120BDE843
:101E6000F88300BF08488168022008470648816857
:101E70004FF40070084700BF0348816808200847F6
:101E80000148816801200847AC0000202DE9F0419D
:101E900001F0F6F902D16079012802D10220BDE8F3
:101EA000F08100F0A1FF25490868884601F0D7F8C5
:101EB0000E2102F0D9FD2046394602F0D5FD1DB1B4
:101EC00001F007FA013DFAE701F034F900F02BFFC9
:101ED00018BF0120BDE8F0812DE9F84301F0D0F9E9
:101EE0001CBF0220BDE8F8830F466179022001295A
:101EF00021D0A07101201D4616466071204602F0D7
:101F0000E1FD0E49DFF838800868894601F0A7F83E
:101F10000D21C047390A2046C047F9B22046C047C4
:101F20001DB101F0D6F9013DFAE701F019F800F012
:101F3000FAFE18BF0120BDE8F88300BF90040058E6
:101F4000694A0008411E0020B0EB116F1CBF012040
:101F50007047074AF023516002490B7007219060D7
:101F60001160704723ED00E0014800F0BBBE00BFE8
:101F700010E000E070B590F83C300222012B20D038
:101F800080F83D20E24C026855689368A24203D174
:101F90004E6825F4700535430E6825F0700535430D
:101FA000A242556002D0B2F1804F04D1896823F07B
:101FB0008003194391600022012180F83C2080F8C1
:101FC0003D10104670BD00BF10B501F0BCF804D143
:101FD00000F0CFFF01D101F047F8204600F012F8E1
:101FE00000F0A8BE58B110B501F003F903D101F01B
:101FF00016F800F015F801F071F900F0FDBE0120AF
:10200000704700000168B1F1804F18BF70470D495B
:102010000A6822F001020A60806AFEF753BB00BF23
:1020200081B00068B0F1804F09D10648016841F0E5
:1020300001010160006800F001000090009801B00B
:10204000704700BF5800005810B501F0A5F81AD02D
:1020500084F83D000120244B84F83C00206882680D
:102060001A4082600A682AB1102A03D0202A18BFB9
:10207000302A09D181681D4B1940114341F00701F5
:10208000816001F012F910BD402A0DD0502A13D002
:10209000602A19D0B2F5005F21D0702AF1D100F08A
:1020A000ABFF41F07701EBE701F0D6F820680F4A6B
:1020B000816811404731E3E701F0CEF820680B4A10
:1020C000816811405731DBE74B68CA68194603F055
:1020D000A2FD2068054A816811406731D0E700F011
:1020E0008BFF41F48041CBE78800CEFF88FFCFFF14
:1020F000FEB50068B0F1804F0ED100F09BFC0120CE
:1021000005900020CDE903000220029008200190F4
:10211000024801A9FEF7B0FC06B080BD00040048EB
:10212000B0B501F0C9F804BF0220B0BD01F099F8C4
:1021300048D80D46DFE800F0030B131B233320685B
:10214000294603F051FC206850F8181F1EE0206853
:10215000294603F07DFC206850F8181F26E020680F
:10216000294603F0A3FC206850F81C1F0EE02068ED
:10217000294603F0CBFC206850F81C1F16E02068AD
:10218000294603F0EBFC206850F8541F41F0080189
:102190000160016821F00401016029690FE02068F5
:1021A000294603F0FDFC206850F8541F41F40061FB
:1021B0000160016821F480610160296909020268F7
:1021C00011430160002084F83C00B0BD58B110B547
:1021D00001F00FF803D100F022FF00F006F801F043
:1021E0007DF800F009BE01207047704710B5044625
:1021F00051B1081F00F04FFE16D8DFE800F0020CC6
:102200000F1204F13F0211E094F83E00012819D1A9
:1022100001F000F823E004F1400207E004F141027C
:1022200004E004F1420201E004F143021278012AC1
:1022300008D1032808D8DFE800F0020A0D1000F0EA
:1022400029FF0CE0012010BD00F05DFF07E000F069
:102250009FFF04E000F094FF01E000F095FF20688C
:1022600000F011FE00F0CAFF0BD02948814205D0D2
:10227000284A914202D0284A91420AD100F01BFE1E
:1022800007D18868044A00F08DFF04D0B2F5803F82
:1022900001D001F03FF810BD07000100B0B500F01B
:1022A00023FE20681A49884205D01A49884202D084
:1022B0001949884207D100F08BFF04D100F059FE84
:1022C00001D100F00CFE00F083FF04D100F051FEBC
:1022D00001D100F0C9FE4FEAB500042807D8DFE8B5
:1022E00000F003090C0F120000F07FFF0DE000F07A
:1022F000EDFE0AE000F05FFE07E000F069FE04E09A
:1023000000F04CFE01E000F0EEFE0020B0BD00BF8A
:10231000002C0140004801400044014010B500F08D
:10232000ACFE04BF022010BD2420C4F88400206845
:102330000168026822F0010241F0005102600122AE
:1023400084F880204FF0005262660160204603F05E
:10235000A3FD0020202184F88000C4F8841010BD63
:1023600090F88010012901D102210FE0012180F8AD
:102370008010016851E8001F026841F0020142E844
:102380000013002BF5D1002180F88010084670471B
:1023900070477047B0B500F070FE04BF0220B0BDBA
:1023A00000F0EFFC22F0606200F0E1FE00F04ABDB8
:1023B000B0B500F062FE04BF0220B0BD00F0E1FC49
:1023C00022F0604200F0D3FE00F03CBDBCB500F04E
:1023D00054FE04BF0220BCBD2420C4F88400206841
:1023E000036823F001030360012384F880308368CD
:1023F00023F440130B43836059B9436891B223F02F
:10240000100319434160C2F30741426861F31F6240
:102410004260016841F001010160FEF7FFFB0346E5
:102420006FF07E404FF4800100220025009020468E
:1024300004F050F908B1032003E02020C4F8840020
:10244000002084F88050BCBD704770477047000082
:1024500070B50446006840F60F05C26901688368DC
:102460002A4267D0A64D01EA0506A64D1D40761901
:1024700068D0D60709D0CE0507D501260662D4F864
:102480008C6046F00106C4F88C60960709D5DE071B
:1024900007D002260662D4F88C6046F00406C4F821
:1024A0008C60560709D5DE0707D004260662D4F8EB
:1024B0008C6046F00206C4F88C6016070BD501F05C
:1024C0002006354307D008250562D4F88C5045F026
:1024D0000805C4F88C5015050AD54D0108D54FF4F0
:1024E00000650562D4F88C5045F02005C4F88C5086
:1024F000D4F88C50002D00F0C38092060AD503F06A
:10250000805201F02001891804D0216F11B12046BA
:1025100088472068D4F88C10806801F0280100F00A
:102520004000401846D12046FFF790FF0020C4F835
:102530008C00A5E0950605D503F0805501F0200636
:10254000AD1945D1E56E012D03D1D50601D5CD06D6
:1025500045D4D50201D55D0224D4150605D503F472
:10256000000301F080055B1930D1530601D54B06FD
:102570000ED4100201D5480056D4D00140F180801D
:10258000B1F1FF3F7CDC2046BDE87040FFF701BFA2
:1025900050E8000F216820F0400000F01EFE39D006
:1025A0002068F5E74FF4801101622046BDE87040D5
:1025B000FFF74BBF204603F05BFD206881684906AA
:1025C00041D500F0DBFC34D02068FAE7616F00E011
:1025D000216F002954D02046BDE8704008471021E3
:1025E00001628168490633D4B4F85E10B4F85C2007
:1025F000B4F85E30002B43D0511A0A0440D050E8A2
:10260000000F226820F4907042E80003002B57D09E
:102610002068F4E7002060672020C4F8840020468A
:10262000BDE8704000F0F0B92046BDE87040FFF70B
:102630000BBFE06F38B134498163FDF7FCFFF8B19F
:10264000E06F816BC8E72046BDE87040FFF7FEBE33
:10265000E16F0A6853689DB295B1B4F85C108D4281
:102660000ED2A4F85E301268920624D450E8000F0F
:10267000216820F4807000F0B0FD02D02068F5E7FA
:1026800070BD206850E8020F216820F0010000F0C2
:10269000F0FCF6D1206800F071FCFBD12020C4F8DA
:1026A00088000020E06600F062FBFCD1E06FFDF7DF
:1026B0008AFFB4F85C10B4F85E00081A81B21AE020
:1026C0001248226852E8022F2368024043E802259C
:1026D000002DF6D12020C4F8880000202067E06695
:1026E000206850E8000F226820F0100042E8000344
:1026F000002BF5D189B22046BDE87040FFF748BEF7
:102700002001000401000010D15F0008FEFFFFEF70
:1027100010B548B10446D0F8840008B900F000FEB6
:1027200000F085FB012801D1012010BDA06A08B18D
:1027300000F0EDFC00F0DBFC21F02A01816000F0EC
:10274000AEFBBDE8104003F01DBC000010B5044610
:1027500000683B49884218BF10BD0948016821F450
:10276000804101604FF09040C021FEF703F9A06F57
:10277000FDF7A8FF2420BDE81040FEF793BA00BF84
:102780006000005870B594B00446684630210830A7
:10279000FDF738FD20682A4988424FD14FF4403078
:1027A0000125019068460095FEF73AFB08B1FDF758
:1027B00009FFB4480026416941F480414161416903
:1027C00001F480410E910E99016841F0020101600F
:1027D000006800F0020013900720CDE91056129017
:1027E00002200F90C0200E9013980EA91548FEF7F6
:1027F00043F91548154D802110221223C0E90053DA
:10280000C0E90226C0E90416C0E906660662FDF7C3
:10281000FFFF08B1FDF7D6FE0B4D10212846FDF74E
:1028200040FF08B1FDF7CEFE242000210022AC625B
:10283000A567FEF757FA2420FEF746FA14B070BDDC
:1028400000380140000400489808002008000240B9
:10285000B0B5D0F88830202B05D131B12AB190F82D
:102860008030012B03D10220B0BD0120B0BD002378
:10287000074C00F0DDFB02D05C68240203D403F0B7
:10288000B1FE0020B0BD00F035FBF8D00368FAE7D8
:102890000080004010B504460848436833B1D4F8BE
:1028A0008C0018B9054801210022984703492046A9
:1028B0000122BDE81040FFF7CBBF00BF3000002071
:1028C0002DE9F8430446D0F88400202807D10E46AD
:1028D00041B1174632B194F88000012805D1022099
:1028E000BDE8F8830120BDE8F8834FF0000901201E
:1028F0001D46C4F88C9084F880002120C4F8840020
:10290000FEF78CF9A4F856708046A4F85470A068BD
:10291000B0F5805F01D1206908B1002701E037469A
:10292000002684F88090B4F85600B8B12046802183
:1029300000F0C0FBB8B926B116F8010B2168886217
:1029400006E037F8021B206800266FF35F218162E2
:10295000B4F856000138A4F85600E4E720464021B8
:1029600000F0A8FB10B10320BDE8F8832020C4F8D4
:1029700084000020BDE8F883F8B50446D0F8840050
:10298000202806D139B313462AB394F880000128D1
:1029900001D10220F8BD00250120A4F85630C4F86A
:1029A0008C5084F880002120A4F854302165C4F8AC
:1029B0008400A06F88B1114A114E124FC0E90D2555
:1029C0002268C0E90B762832FDF782FF28B100F0BB
:1029D0000BFBC4F884000120F8BD2068402184F876
:1029E0008050016250E8020F216840F0800000F042
:1029F00040FB01D02068F5E70020F8BDE15F00084A
:102A00006B60000833600008014801680020084737
:102A1000080700207047704781B005490A680243E3
:102A20000A60096808400090009801B0704700BF34
:102A30004800005881B01348016841F0020101606C
:102A4000006800F002000090009801B0704700BFDD
:102A500081B00C490A6802430A6009680840009086
:102A6000009801B0704700BF81B00648016841F08E
:102A700004010160006800F004000090009801B0BB
:102A8000704700BF4C000058064A6FF47F2161EA8E
:102A9000101100F47F401368194041EA00101060E3
:102AA000704700BF8800005880B50420FFF7B4FFCE
:102AB0000120FFF7B1FF0B2000210022FEF712F9E1
:102AC0000B20BDE88040FEF7FFB8000080B58CB059
:102AD00001A82821FDF796FB174800224FF48071CA
:102AE0004FF08043C0E908211F21C0E90422C0E95A
:102AF0000623816011490160FEF71EFF08B1FDF752
:102B000061FD0D48FEF7A8FE08B1FDF75BFD4FF42F
:102B1000807000220B904FF000500790002006902C
:102B200002900890044801A9FEF78CFF08B1FDF758
:102B300049FD0CB080BD00BFF8080020002800400F
:102B400080B5054808210160FFF7C4F818B1BDE859
:102B50008040FDF737BD80BD3009002080B502F010
:102B6000D9FDBDE8804002F087BC4FF0FF3003F094
:102B700013BF000010B58EB02048002107227C232F
:102B80004FF080440D91CDE90B110891CDE905116D
:102B9000CDE903118161C0E90043C0E9021201617E
:102BA000FFF720FA00B1FEE74FF480500A90134877
:102BB0000AA9FFF749FA00B1FEE71048FFF706FB44
:102BC00000B1FEE700240D480994079407A9FFF718
:102BD000D1F900B1FEE7032069460422049402946F
:102BE0000190602000900548FFF79AFA00B1FEE7D7
:102BF0000248FFF77DFA0EB010BD00BF3C0900206F
:102C000010B5174C00210C20164B4FF41652C4E996
:102C10000410C4E9021104F118001421C4E90032BF
:102C2000FDF7F0FA2046FFF773FD08B1FDF7CAFC87
:102C30000B480021FFF7BCFB08B1FDF7C3FC0848B7
:102C40000021FFF7A7FB08B1FDF7BCFC0448FFF724
:102C500065FB18B1BDE81040FDF7B4BC10BD00BF66
:102C60008809002000380140FEE7FEE78202810D5E
:102C7000002310464FF47A72FDF77ABA0120002142
:102C8000012203F097BD284621463246FDF7C5BA1A
:102C90004FF0B040016841F008010160DAE9091223
:102CA000036823F0F0031A430260206820F47F4099
:102CB00040EA0120206070474FF6FF72F36F62EA2E
:102CC00001021A4042EA0141F1677047012084F88D
:102CD000240094F8250001287047086820F00400BB
:102CE00008607047016821F002010160704729788F
:102CF0006A78AB7895F803C040EA0140296A40EA57
:102D00000220184340EA8C50084395F8241040EA0A
:102D100001607047FF22CA600021012280F82C1058
:102D200080F82D207047002001216071A068A171FA
:102D300000287047002084F8480084F83E0084F89A
:102D40003F0084F8400084F8410084F8420084F891
:102D5000430084F8440084F8450084F8460084F871
:102D6000470084F83C0084F83D00002010BD206836
:102D700050E8000F216820F0100041E80002002A0E
:102D800070472420C4F8840020680568026822F097
:102D900001020260012284F88020826870478DF869
:102DA00007004A70010A000C03228DF806108DF806
:102DB000050070474FF0FF3070470022002302F0FB
:102DC000B7B820464FF48071FEF77EBD204604213F
:102DD000FFF764BA3060FDF721BF0D4690F82C1064
:102DE000044602200129704701201D4616460F4661
:102DF0006071204601F066BE012084F8480084F826
:102E00003E0084F83F0084F8400084F8410084F8D4
:102E1000420084F8430084F8440084F8450084F8B4
:102E2000460084F8470084F83D00002010BD2420AF
:102E3000C4F884002068016821F001010160204687
:102E400003F0E0BA206820210560002084F88000AB
:102E5000C4F88410B0BD012202F0E2BA02200021C1
:102E6000012203F0A7BC204600F0D6BC016851E85F
:102E7000021F026821F4000142E80213002B704790
:102E8000204600F0F1BC012202F09EBD000240EAA3
:102E90000848A87848474FEAB000032870470168FF
:102EA00041F00101016020467047CA22CA605322E6
:102EB000CA600A6870474A6C814242F400424A6420
:102EC000704751E8001F026821F4907142E8001336
:102ED000002B7047206850E8020F21687047416C52
:102EE00021F40041416470470446006800220D4609
:102EF00002F06ABD53E8003F046843F0806344E891
:102F00000035002D704704210162D4F88C0040F098
:102F10000200C4F88C00704702220262D4F88C20B0
:102F200042F00402C4F88C207047012000210122E5
:102F300070470546D4F88C0041F288367047016826
:102F400041F0020101607047FF20F8600020226B11
:102F500084F82C0011432163012184F82D1070475F
:102F6000D9F8000040F40040C9F80000204601F004
:102F7000CDBD016A40F244421142704750E8020F51
:102F8000216820F0400041E80202002A7047134601
:102F90000A4601467047002002F070B9012084F80B
:102FA0004100704701220262D4F88C2042F00102F5
:102FB000C4F88C207047012084F83F00704702F06D
:102FC000010900F480784FF0200A4FF0000B7047A1
:102FD000012084F84000704708688A68B4F860509F
:102FE000D4F88830222B70471020C4F88C000020C1
:102FF00084F8800020207047D1E90123C9681A4372
:1030000042EA0121826822F47F4211438160816893
:10301000704700222B460090204603F05BBB002047
:1030200084F83C0020467047B0F85C10FFF7B0B958
:10303000C366012380F880300368A34270470968A3
:1030400001F00F0152F82110B0FBF1F0704708EBCE
:103050000001EA7895F8240041EA8258484720F4B4
:103060000040086020467047016821F001010160BE
:10307000704741E80202002A7047044690F8800039
:103080000128704700F0FB0040EA840140F23670EE
:1030900002F0D4B9022084F83F0070472020C4F821
:1030A0008400C4F8880000207047886940F0080058
:1030B0008861704700224346009503F00BBBC4F8BB
:1030C00088A0C4F870B0E06E01287047012084F831
:1030D0004300704751E8001F026841F4807142E8E4
:1030E0000013002B7047012084F8420070472068CD
:1030F000416821F490414160816870472046B4F8EE
:103100005C10FFF745B9022084F843007047204661
:1031100002F0E4BE411B032002297047F26F22EA4D
:10312000114289B21143F1677047016841F480414F
:1031300001607047D8F8000040F40040C8F8000073
:10314000204601F0E3BC0446022041F2111284F84B
:103150003D002068016A11427047016851E8001F74
:10316000026841F0400142E80013002B7047114310
:103170008160204602F090BE90F8560002F09BB8A5
:10318000022084F841007047022084F84200704712
:10319000022084F84000704790F83C20044602204A
:1031A000012A704702400020062A70473860FDF768
:1031B00035BDCA21F9605321F9603968AA6AB2F5B0
:1031C000807F7047C2EBC202C2F34C425A43704741
:1031D000016A41F211121142704741E80002002ACF
:1031E000704740F2FF1002F0F1B8012084F83E0071
:1031F0007047044690F83D00002870472168B1F1FF
:10320000804F7047B8420262026A46680C688B6859
:10321000456D7047022084F83E007047C4F8900066
:10322000FDF7FCBC84F82C0057F80C0C00F4407639
:10323000B6F5807F70472046314601F0E7BB214656
:1032400000F11C05284603F0A9BCB04202620A68DE
:103250008B68046A456870474B68CA68194602F073
:10326000C9BC012084F83C004FEAB2000528704731
:103270002A6A696942EA080242EA00600843704724
:103280000446807901287047016851E8001F0268F0
:1032900021F0100142E80013002B70478DF8060062
:1032A00049F2C140ADF8040070470020012184F8C4
:1032B0003C0084F83D107047044690F83C0001281B
:1032C000704721F40851396002217964B6F5807F96
:1032D000704716F8011B204601F0C6BB0220211DD5
:1032E00084F83D00206802F03BBB016851E8021FF2
:1032F000026821F0010142E80213002B704701200F
:1033000000F00ABE21F48851396001217964B6F5D4
:10331000807F7047086840F0010008600020704717
:10332000002084F880002046FFF72CBA002194F892
:10333000560001F0C0BF00002DE9FE431F461546B0
:103340000C46804619A3FFF7F0FD4FF0000903F08B
:1033500031FA19A3FFF7E9FDCDE9005703F02AFA86
:103360001E4EFF2177701E4F86F804903846FCF7FA
:1033700049FFFF2CF48004D8194841462246FCF747
:1033800028FF18A3FFF7D1FD3570009403F012FA5F
:1033900019A3012000210022009703F00BFA01205D
:1033A000002103B0BDE8F04303F06ABB4F6E5278D2
:1033B000446F6E650A0D00005273736956616C7537
:1033C000653D25642064426D2C20536E7256616CFD
:1033D00075653D256464420A0D0000003800002038
:1033E0002C0300207061796C6F61642E2073697A00
:1033F000653D2564200A0D0025730A0080B506A3EB
:10340000FFF73CFC94480221017101200021BDE836
:10341000804003F035BB00BF4F6E52784572726F2B
:10342000720A0D0010B507A3FFF77FFD012403F01A
:10343000C1F98948002104710120BDE8104003F062
:103440001FBB00BF4F6E527854696D656F75740A6B
:103450000D00000080B506A3FFF710FC7E48032195
:10346000017101200021BDE8804003F009BB00BFCD
:103470004F6E5478446F6E650A0D000080B506A348
:10348000FFF7FCFB74480421017101200021BDE815
:10349000804003F0F5BA00BF4F6E547854696D65F3
:1034A0006F75740A0D0000001FB56B4CE078E8B131
:1034B00002A802F0FBF8DDE90212D4E90430C4E905
:1034C0000612009002A802F015F9DDE90201C4E934
:1034D000080108B2152809DBA07800210130A0708E
:1034E0000020E0702081022003F0CAFA1FBD00BF57
:1034F00080B50120FCF72AFF0220FCF727FF564881
:103500002830BDE8804003F061BB00BF704780B544
:10351000FEF72AFD00200121BDE88040FDF75EBCDA
:1035200080B5FEF721FD0448012101600120BDE8BE
:103530008040FDF731BC00BF880400587047FEF79B
:10354000FDBA80B5FEF7FAFABDE8804003F0E6BDAB
:103550007047000070B53F4CE06A80473E4D2879C7
:1035600004284BD8DFE800F0230303361F003C4853
:103570000078C0B1FCF764FFE06DA66A8047E96897
:103580000844C830FDF7E6F9364BFFF777FB364CB9
:103590003649EC222046FCF71CFE2046FF2132462D
:1035A000BDE870401047FCF75DFF2C4B1EE0E8883B
:1035B0002B4D297881B108B33048314900688842E1
:1035C0001DD02E482949EC22FCF744FE58B90020B2
:1035D0002870EAE726A309E080B128482349EC22B5
:1035E000FCF738FE08B30120264B2870FFF746FB96
:1035F000616B40F6B830BDE87040084770BDFCF71D
:103600001FFFE06DA56A8047C830FDF7A3F91EA330
:10361000FFF734FB134BFFF731FB134C1349EC223C
:103620002046FCF7D6FD204610E0FCF71BFFE06DBE
:10363000A56A8047C830FDF78DF916A3FFF71EFB7A
:1036400017A3FFF71BFB08480D490160FF212A461D
:10365000A6E700BF9874000838000020CC75000869
:1036600024000020EF7500082C04002008760008D4
:1036700052782073746172740A0D00002C030020CC
:10368000504F4E47DD7500082E2E2E50494E470AEA
:103690000D0000002E2E2E504F4E470A0D00000048
:1036A000536C617665202054782073746172740ABB
:1036B0000D0000007CB50E4C2046FCF7C4FD05460D
:1036C00001300121FCF7E2FD064601AB2046294608
:1036D000324603F025FB07A0314603F03BFD3046A0
:1036E00003F0C2FD20462946FCF78CFD7CBD00BFDF
:1036F0000C0700206D73673A2025730A0D00000047
:10370000FCF734BEFCF754BEFCF754BEFCF786BE93
:10371000FCF786BE70B53C21214A01EA90001E49A3
:1037200008581E49FFF78BFC1E49B0FBF1F4FDF76A
:1037300047FBB0F5007F09D11C49002003280FD0BA
:1037400031F81020A2420DD20130F7E716490020CF
:10375000032805D031F81020A24203D20130F7E748
:10376000002502E012A151F82050144E306820F0DC
:1037700007002843FFF72EFB0446306800F00700DF
:10378000A84204BF002070BDFDF748FA001B0328C3
:1037900024BF032070BDF0E75874000808010058EA
:1037A0003073000840420F002A7300082473000899
:1037B000000000000100000002000000004000586E
:1037C00070477047FFF7F6BA002070470020704737
:1037D000FFF7F0BAFFF7EEBA704770477047FFF790
:1037E000E9BAFFF7E7BA00000148FEF751B800BF99
:1037F000F808002009210A23C0FA51F10931CAB2A0
:10380000B2FBF3F202EB8203A1EB4303591A084423
:1038100040EA0210C0B270472DE9F041114E8046D7
:103820003068400619D430680027012440F0800039
:103830003060FDF7F3F905463068E14341EA901046
:10384000C0070BD1FDF7EAF9401BB0F57A7FF3D939
:103850000327002488F82D70EEE70027F8B2BDE8B2
:10386000F08100BF0C280040B0B5124D044655F859
:103870000C0C20F0800045F80C0C2868800606D45B
:10388000FEF742F970B1032084F82D00B0BD28681E
:1038900020F020002860FEF737F928B1032084F8D3
:1038A0002D0002E00020B0BD0020296841F0200179
:1038B0002960B0BD182800400120704780B501F094
:1038C000DFF904380023044AC0B2C100042838BF1D
:1038D00022FA01F3D8B280BD0201000380B501F0E5
:1038E00023FA033080BD00007CB5F84EF84900256E
:1038F0003446C1E901554D7001C4194801F070FA10
:10390000002000F031FB01F020FC0020002101F03C
:10391000D8FA01200021042201F018FD4FF6FF70B3
:103920004FF6FF71FFF749FA00F056FF0D4B2046A6
:103930004FF0FF310022009503F0B6F8009506F134
:103940001C05094B4FF0FF310022284603F0ACF86C
:10395000204603F071F92846BDE87C4003F06CB9BD
:10396000313C00084D3C00083D3C00087CB5774CDC
:1039700000208DF807000090B4F85400411E07297C
:1039800027D9102800F08080202800F07F80402870
:1039900000F09580802800F09E80B0F5807F00F0D8
:1039A000A380B0F5007F40F0D0807AA3FFF756FAED
:1039B00001F066F9042840F0A280694C201D03F054
:1039C0003BF9FFF7E8FA2068002800F0BE80406865
:1039D000A3E0DFE801F00416BA4CBABABA4E604C64
:1039E000201D03F029F9FFF7D6FAFFF7EFFE0128B3
:1039F00008BFFFF7E6FE2068002800F0A6800068F8
:103A00008BE0574D05F11C0003F016F9607880B982
:103A1000FFF7C1FA40F60210002101F00FFD40F659
:103A2000441001F029FA40F0020140F6441001F080
:103A300005FD5D480DF10701FF2201F05DF904F17C
:103A4000240001F021F92868002800F07E808668B3
:103A5000002E7AD094F82400012862D194F93130F4
:103A600094F930209DF807104F48B0477CBD46A31D
:103A70001DE042A3FFF7F2F9FFF7A6FE012864D18B
:103A8000BDE87C40FFF7A8BE39A310E0344D05F136
:103A90001C0003F0D1F8607808B9FFF77CFA2868B9
:103AA000002852D0C06800284FD080472DA30220A4
:103AB0000021012202B0BDE8704002F07BBE24A3C9
:103AC000FFF7CCF9607808B9FFF765FA2448006879
:103AD000D8B3006921E0FFF75EFA21480068A0B37F
:103AE000816991B3002007E0FFF755FA1C48006890
:103AF00058B3816949B30120BDE87C40084701F013
:103B0000BFF8052821D1164C04F11C0003F094F8ED
:103B1000FFF741FA2068C0B1C068B0B1BDE87C4091
:103B20000047E06B694601F05BF800984FF47A714A
:103B300094F9292000F5FA7090FBF1F09DF8071038
:103B400043B228688468E148A0477CBD2C06002069
:103B50004952515F4352435F4552524F520D0A0042
:103B6000B8000020484452204B4F0D0A00000000CE
:103B7000484452204F4B0D0A0000000053594E4359
:103B8000204F4B0D0A000000505245204F4B0D0AAC
:103B9000000000004952515F52585F54585F544929
:103BA0004D454F55540D0A002B0500202DE9F041DD
:103BB0008AB01C4615468846074600F016FE0020CF
:103BC000002600F0A9F9384601F0D0FA012041465C
:103BD0004FF416720023CDE90266CDE90466CDE903
:103BE0000666CDE908600320CDE90080002000F0E2
:103BF000D7F9002000F046F8FFF770FEFCF7AAFEA8
:103C000002F06CFF0646304602F072FF0746A04203
:103C100003D201F0BDF8A842F5DD0025A74228BF78
:103C2000012500F0E2FD28460AB0BDE8F081000061
:103C3000DA49A1F85400FFF799BE00BFAB4800680D
:103C400010B1C06800B10047704700BFA7480068C6
:103C500010B1406800B10047704700BF80B5FFF762
:103C60004EFB00200021FFF7A8F8BDE8804001F0DE
:103C70005DB801F001B901F00BB980B501F088F829
:103C800080BD0000B0B50446FFF79EFD012802D1BB
:103C9000FFF79EFD05E040F2622040F26221FFF74F
:103CA0008CF82CB19148FFF7CAFA284602F08EFF33
:103CB000BA4CFFF73BFB61786FF07F40A2680029A8
:103CC00008BF9001BDE8B04001F080BAB800002004
:103CD0002C060020B0B50446FFF776FD012802D17E
:103CE000FFF776FD05E040F2622040F26221FFF727
:103CF00064F82CB17D48FFF7A2FA284602F066FF6F
:103D0000A64CFFF713FB61786FF07F40A268002993
:103D100008BF9001BDE8B04001F064BA2DE9F84F4A
:103D20008B46814640F2012040F20121FFF745F821
:103D3000DFF89481012198F8560001F0BCFA98F858
:103D4000000098F8511081F0060180F0010050EA5F
:103D5000010640F6890018BF012601F08DF800F039
:103D6000FB0040EA860140F6890001F067FB98F805
:103D70000000032800F29080DFE800F00214171E14
:103D8000FFF722FD01287CD10DF103024846594678
:103D9000FFF725FD002800F08B804EA3FFF75EF8AB
:103DA000BDE8F88F88F81FB06DE00221404600F8AA
:103DB0000E1F80F80CB068E0444800215A464B467C
:103DC0003AB11E78013AF64303F8016B00F8011B83
:103DD000F6E73E4E4FEACB0700200721002297422C
:103DE00015D0C2F3C70421EA0203013219F80440D6
:103DF00024FA03F321EA020403F001035840C3B29A
:103E0000A340C2F3C704355D2B433355E7E7C10137
:103E100045460BF1010941EA8011C0B2B0FA80F0C9
:103E2000400941EA401006F80B00022005F80E0F89
:103E3000284685F80C9001F01BF9DFF894A0F120DA
:103E40000021D047F0200021D047D5F83A40E121A9
:103E5000642C08BF7021F320D0470421642C08BFD4
:103E60001D21F220D0474FEA5B11F420D047B81C47
:103E7000C1B2F520D0475FFA89F130466FF07F423A
:103E800008E088F816B008F10E0001F0F1F8484695
:103E90005946002201F00CF81448D8F80410041D0B
:103EA000204602F07BFE204602F090FEBDE8F88F2F
:103EB0009DF8030088F8160008F10E0001F0D8F80C
:103EC0009DF803104846E4E72C0600202B0500204F
:103ED0003D540008526164696F53656E64204F76EB
:103EE000657273697A650D0A00000000B800002051
:103EF00001F03CB9012802D1D148C17705E0D04892
:103F0000427D012A18BF70478175C2480170CC48B4
:103F10000E3001F0ADB800BFB0B5C94D04462870F1
:103F2000FFF75CFC601E032809D8DFE800F00E02F2
:103F30000208022001F0F0F800206873B0BD0020F4
:103F4000002401F0E9F86C73B0BD012001F0E4F841
:103F5000287B697B8142F7D06873002818BF012055
:103F6000BDE8B040AFF3008010B50446B4484473D8
:103F70000473FFF7C4F914214FF4E860002C18BF54
:103F8000342101F05BFA242140F24170002C18BF6B
:103F90004421BDE8104001F051BA00BF2C060020BA
:103FA0002DE9F04F85B0DDE91185DFF8C4B9179C24
:103FB0001F4691468A4606468BF80140B8F1000F2D
:103FC00008BF4FF0FF35FFF7FBFB9249002C10981C
:103FD0000F9C0D7018BF0020002E69D0012E00F03C
:103FE000B180042E40F0138100900120884601F03A
:103FF00059F9092000275E468BF844004FF44870B9
:1040000006F8387FCBE90F90504600F027FE5D465A
:1040100005F80E7F85F837004FF480506860E000A7
:1040200068800120A5F8090098F800002872042093
:10403000FFF772FF304600F0B3FF284601F018F892
:1040400042F2B270CDF80E70ADF81270ADF80C00FF
:1040500003A801F046F9FFF7C4F8704E40F6B80027
:10406000B0476F4D00F0EF0140F6B800A84740F6AA
:10407000B9000421A84740F69B00B04700F0E300D8
:1040800000F1080140F69B00A84740F2D160B0471C
:1040900040F0180140F2D160A84740F2AC60B04750
:1040A00000F08F0000F1500140F2AC60A84742E000
:1040B00000900020002701F0F5F80B205E46CBF8B9
:1040C0003C908BF84400504606F8387F00F0C6FD5F
:1040D0005D46139905F80E7F85F8370088F00100DA
:1040E000AF71E87141F60400A880E000688001200B
:1040F000A872002918BF6FF00D006872454800785B
:10410000287200F072FB3078002818BF0120FFF7FA
:1041100003FF304600F044FF284600F0A9FFC1200D
:10412000CDF807708DF80B70FFF7B8F801A801F013
:10413000D8F8FFF756F800994FF4FA504843B0FB0F
:10414000F9F062E0009000205D464FF0000B01F0B6
:10415000A9F8314901202E4622468AF0010306F8CB
:10416000380F0C2C11F80A10B77686F8189006F85C
:104170001A8C71766FF0040198BF0C2251FA89F104
:104180000229169928BF224626F81C2C344689F0AD
:104190000C0206F8171C139906F8181C1D4909781B
:1041A00006F8191CA9F10B01022938BF4FF0010BC9
:1041B000BAFA8AF104F82A0D1A434909B2FA82F2CE
:1041C00001EA0B01AB4652091143F17600F00DFBF9
:1041D0003078002818BF0120FFF79EFE304600F01F
:1041E000DFFE204600F044FF0098C0B200F0BBFEA6
:1041F00016F8170C441E40F2367018BF012400F068
:104200003BFEFEF73FFF4FF6FF70CBF8080005B00E
:10421000BDE8F08F1C00002090730008794E000864
:104220003D540008B0B50546E9480C460021FEF7AC
:10423000A3FF28462146BDE8B04000F0EDBF00BF17
:104240002C0600202DE9F04387B00027984614463D
:104250000D460646CDE90477FFF7B2FADFF810976E
:10426000002C18BF012489F8014018BFB846012E60
:1042700017D0002E40F0BB80E868002800F0B58021
:104280002869002800F0B180687D082800F2AD8020
:10429000002104AA88422CD0AB695B5C53540131E5
:1042A000F8E7A88E002800F0A08095F836000128D5
:1042B0000CBFEC69FF24E86A002818BF012000F059
:1042C000F1FF5FFA88F000F04EFE012089F8380017
:1042D00095F8301095F8330089F85010B5F8312072
:1042E000A9F85120C0B3022831D0012836D10120CD
:1042F00032E02868002818BF012000F0D3FF002416
:1043000089F83840E868C9F83C00287989F8440001
:10431000A86800F0A3FC89F8450089F80E40297DC3
:1043200095F822306A7D95F8230089F8121089F8F3
:104330001430298AC900A9F81010D10089F8131087
:10434000B8B3022837D1FF2089F816003AE00B39BC
:104350000020022938BF012089F85300012009F804
:104360000E0FA88E89F81140A9F80E0095F83600B6
:1043700089F81000288FA9F8120000F036FAFEF72D
:10438000BEFF09F12A0000F00BFE484600F070FE67
:1043900099F81300441E40F2367018BF012400F053
:1043A0006BFDFEF76FFE4FF6FF70002749F8060C15
:1043B0001DE0E96900E0FF2189F8161095F82A1040
:1043C000022918D195F82400A0F1F101022901D3A6
:1043D00001280AD18E4A002402958DF80C4052F82B
:1043E0001C1B01A8FFF7EEF970B14FF0FF373846FC
:1043F00007B0BDE8F08389F8150095F8240089F826
:10440000181089F8170004E0012089F81540A9F870
:10441000170000F0EAF900200027FFF77DFD09F101
:10442000380000F0BDFD09F10E0000F021FE04A8E7
:1044300000F057FF288C00F0C9FFE88C00F058FD11
:104440004FF4FA50E96808FB00F0B0FBF1F0C9F84E
:104450000800CCE72DE9FE4F1D4617468846044666
:10446000FFF7AEF9149EDDF830A0032C4CD0DDF838
:104470004090DDE90EB3012C54D0002C40F09C801C
:10448000E34E0B2086F844002846C6F83CA04FF0C7
:10449000000A34461D4604F838AF00F0DFFB06F88A
:1044A0000EAF86F837000120C6F83270B072B9F14D
:1044B000000F18BF6FF00D00707286F806A085F02F
:1044C0000100F07141F60400B0804FEACB0070802B
:1044D00000F08BF92078002818BF0120FFF71CFDA1
:1044E000204600F05DFD3046149E00F0C1FDC12065
:1044F000CDF807A08DF80BA0FEF7D0FE01A800F0C4
:10450000F0FEFEF76EFE57E00320FFF705FDC04802
:10451000022100F8381F16210175C0F810A000F024
:104520003FFD49E03746BA4E012013990D9ABBF181
:104530000C0F06F80E0F86F84420FB4AF17425494B
:10454000337486F842A086F8129085F00103344651
:10455000525D097886F8432071746FF004015A4661
:1045600051FA8AF198BF0C22022928BF5A46F281DB
:10457000AAF10B0100220229B5FA85F138BF012208
:1045800004F82A0F490911408AF00C021A43B2FAC2
:1045900082F25209114386F8451000F026F920787E
:1045A000002818BF0120FFF7B7FC204600F0F8FCF8
:1045B00030463E4600F05CFD404600F0F3FDEC4C1A
:1045C00084F85600FFF709F96660BDE8FE8F00BF6A
:1045D0002C0600201C000020B0B514460D4600F04B
:1045E000C5FD284600F0DEFD012100F064FE4FF419
:1045F0007A70444300F0A0FE76482146051D284607
:1046000002F0CCFA2846BDE8B04002F0DFBA00BFA5
:10461000B80000202DE9F04186B0074600201C4676
:1046200015460E46CDE90400FFF7CAF8022F13D055
:10463000012F19D0002F67D1B06890B1316981B1D5
:10464000317D08290DD8002204AB914269D0B769A9
:10465000BF5C9F540132F8E7706B10B1B0F57A7F00
:1046600017D94FF0FF3059E0C14F012087F83800CB
:1046700096F8281096F82B0087F85010B6F82920E5
:10468000A7F85120C0B1022811D0012816D101206D
:1046900012E002200227FFF73FFCB548162100F880
:1046A000387F0175716B016100F07AFC2CE00B39E9
:1046B0000020022938BF012087F85300012007F8A5
:1046C0000E0FB08DF88196F82E003874B6F82F00D2
:1046D000788200F08AF8FEF712FE07F12A0000F057
:1046E0005FFC384600F0C4FC97F8436040F6890050
:1046F00000F0C2FB062E0CBF00F0FB0140F00401ED
:1047000040F6890000F09AFE284600F04BFD984DD7
:1047100085F85600FFF761F86C60002006B0BDE830
:10472000F081934F4FF00008F86387F838803078B5
:1047300087F84400706800F091FA87F8450004207B
:1047400087F80E8087F81480B874F0683864308A6F
:10475000C0003882307DC000F87496F8240002282A
:1047600002D0B17F022919D1F07FA0F1F101022915
:1047700002D301287FF475AF164A4FF00108019665
:104780008DF80C8002CA01A8FFF71CF800287FF4FE
:1047900068AF0020A7F81780787503E03876F07FBF
:1047A0007975F87500F021F80020FFF7B5FB07F1E7
:1047B000380000F0F5FB07F10E0000F059FC04A8EA
:1047C00000F08FFDB08B00F001FE308C00F090FB0C
:1047D0009AE700BFB800002080B5042000F038FD43
:1047E0000220BDE88040FCF7B5B8002000F046BDCF
:1047F00080B55F480021FEF7BFFC4FF4C0704FF456
:10480000C071FEF7DAFABDE8804000F067BB00BF78
:104810002C060020F0B50DF1140C089E01289CE830
:10482000901010D000285FD10CEB0400002E18BFB0
:1048300002302021002F18BF182101EBC0004FF4D7
:104840007A71484352E019B9A2F10B00022804D34F
:104850000020012908BF0C2A00D101201425002FB7
:1048600018BF0025A5EB8205002E6FF0070618BFC4
:104870001035072A05EBCC0528BF0835970000281E
:1048800018BF06EB82070C26072A38BF9700384668
:10489000002DC8BF284401380C250C2C90FBF7F0E4
:1048A00088BF2646571F022F28BF2646072A38BF33
:1048B0000E25AC190433023A00FB0340800001309E
:1048C00090404FF47A725043174A515C00220A29F3
:1048D0000CD8DFE801F006101316191B1D0B1F2260
:1048E000250041F6846201E00122002010440138D5
:1048F000B0FBF2F0F0BD43F60952F7E747F612229B
:10490000F4E74FF22442F1E70A4AEFE7084AEDE7FD
:10491000064AEBE742F6B102E8E745F26112E5E745
:104920004AF2C322E2E700BF9073000820A107000B
:1049300090D0030048E8010080B500F033FC01216D
:1049400000F0B9FCBDE8804000F0F6BC80B5084836
:104950000121FEF711FC4FF4D7602D2100F06EFD10
:1049600000F0EFFC0348BDE8804000F0D7BC00BF7A
:104970002C060020FFFF0F0000F060BD00F06ABDB4
:1049800010B50446FEF7C2FE012818BF10BD40F660
:10499000231000F071FA00F0F90040EA040140F63B
:1049A0002310BDE8104000F049BD000000210D4A71
:1049B000B0F5803F38BF012138BF00040901B0F1D4
:1049C000807F3CBF08310002B0F1805F38BF043106
:1049D00038BF0001000F81F01F01105C081AC0B23F
:1049E000704700BFAC750008074940F441700A6881
:1049F00022F040020A6008604FF4B850486008682E
:104A000040F040000860704700000158B8B54E4CB7
:104A100064232268FEF7D6FB294B0092009A3AB134
:104A2000009A013A00921A689207F7D5002201E035
:104A300001228260FF251D7164252468C4EBC40433
:104A4000C4F34C446C430094009C34B1009C013C82
:104A500000941C68E407F7D001E0012282605868E6
:104A600008701046B8BD00BF18B5374C64232268E3
:104A7000FEF7A8FB124B0092009A3AB1009A013A55
:104A800000921A689207F7D5002201E001228260A5
:104A9000197121686424C1EBC101C1F34C41614328
:104AA0000091009931B10099013900911968C90745
:104AB000F7D001E0012282605868104618BD00BF9F
:104AC0000800015881B00179012915D11E490968F2
:104AD00001EB4101C1F34F31009109490A6822F409
:104AE00000420A60009A013A0092009A002AF9D125
:104AF0000A6842F400420A6001B000F007B800BF43
:104B000090040058E948FDF79DB800BF81B00E49F8
:104B10006422096801EB4101C1F34B41514300910B
:104B20000A490A68009B53B1009B9208013B00931D
:104B30000B6802EA5302D207F3D1002002E00221FF
:104B40008160012001B0704720000020140400584B
:104B5000E0B500F07F000DF1070101228DF807009C
:104B6000892000F05DFC8CBDE0B51849884204D373
:104B7000E1208DF80600E9201EE01549884204D3A3
:104B8000D7208DF80600DB2016E01249884204D3B6
:104B9000C1208DF80600C5200EE00F49884204D3DD
:104BA00075208DF80600812006E00C49884205D367
:104BB0006B208DF806006F208DF807000DF10601BF
:104BC0009820022200F02CFC8CBD00BF01E9A43526
:104BD00081F8A9328144E52D010B6B1B41FC54196E
:104BE0002DE9F843194C814640F607008846A04756
:104BF00006464FF4D660A047074600F00F0540F286
:104C0000B160A0473A0740EA0520114948BF084370
:104C1000C6F3C1010FA20123515C06F00702013A5D
:104C200091400D4AB2FBF1F1B1FBF9F2082A38BF0D
:104C300002235A43042A38BF0423594349094843ED
:104C4000C011C8F80000BDE8F88300BF794E000825
:104C500000F0FFFF04080A0C0048E80160B1074AB1
:104C60000021B02907D0535808318342F9D9501890
:104C700010F8040C7047FEE71F207047947300087B
:104C8000F1484078704700BF1CB504460DF105019E
:104C90001420032200F0E2F8EB488178012921700A
:104CA00010D009BB9DF805009DF806109DF807205F
:104CB00020710020A06048424008A0715042400886
:104CC00060711CBD40689DF8071020619DF80500CB
:104CD0004042400820739DF906000230800860734E
:104CE00048424008A0731CBD20460021142201F058
:104CF00037FE0F2020701CBD7CB50E4604460020F8
:104D00000DF1070115468DF80700304600F04CF80C
:104D10003278AA4284BF01207CBD9DF8070021465D
:104D200000F08EF800207CBD012070477CB500208B
:104D3000019040F6E20000F09FF8144E044600F0A7
:104D4000FE0140F6E200B04740F6E50000F094F8BE
:104D5000054600F07F0140F6E500B0476FF07F4068
:104D600000F034FA01A940F61900042200F090F88E
:104D7000002000F083FA40F6E2002146B04740F6FA
:104D8000E5002946B04701987CBD00BF3D540008AE
:104D9000E0B50DF107011520012200F05FF89DF844
:104DA0000700404240108CBDBCB50C4605460DF1D5
:104DB00006011320022200F051F8E0488178012911
:104DC00007D1C078012804D140F2027000F054F8F5
:104DD00001E09DF8060028709DF807002070BCBD1A
:104DE00010B508B1ED498860FDF7AAFE0220FFF773
:104DF000C7FDEA4C00202070002000F03FFAFEF7CB
:104E000087FC01280CD10120402100F073FA40F604
:104E10001110002100F012FB7F20FFF799FE09E03E
:104E200040F61110202100F009FB40F6121020215D
:104E300000F004FBFEF768FC0120607010BD00BFAD
:104E400010B5FEF7A4F8EFF31084EFF3108072B6FC
:104E50001648FCF7ABFF84F3108810BD10B5FEF7C1
:104E600096F8EFF31084EFF3108072B60F48FCF75A
:104E70007BFE84F3108810BDE0B501460B480DF1B0
:104E800007020123FCF7BEFF9DF807008CBD00BFA1
:104E900010B5FEF77CF8EFF31084EFF3108072B6D4
:104EA0000248FCF7AFFF84F3108810BD30090020E2
:104EB00010B5144600F044F92046BDE8104000F05B
:104EC0002DBAE0B58DF807108DF806000DF106013A
:104ED0008F20022200F0A4FA8CBD000080B5C5200E
:104EE0000021002200F09CFAED480721417080BDAE
:104EF000E0B540BAADF80600E948807800B18CBD55
:104F00000DF1060140F2BE60022200F0A3FA8CBD52
:104F1000E0B540BAADF80600E148807800B18CBD3C
:104F20000DF1060140F2BC60022200F093FA8CBD44
:104F3000E0B58DF80520120A8DF80310090A8DF8E6
:104F40000100000A8DF807301B0A8DF804208DF847
:104F500002108DF800006946082008228DF80630FE
:104F600000F05EFA8CBDE0B58DF807000DF1070189
:104F7000A020FDF770FF9DF8070040280ED34108E0
:104F80000020CAB2202A02D301309108F9E700EBD1
:104F9000C100C1B240F2067000F050FA8CBD0000B2
:104FA0001CB5E44904460020CDE90000207889784A
:104FB000814202D000F0B0F82178032942D8DFE81E
:104FC00001F00222262DA089204A0023ADF803001B
:104FD000D4E90101B2FBF0F0020A8DF80200000CE6
:104FE0008DF801206E4A8DF800004806C909FBF7CC
:104FF000BFF8010A8DF80700000C08228DF8061092
:105000008DF805001AE0A0690422009016E0207DCA
:105010000E4904228DF80300206905E0A0890B49A0
:105020000522ADF803006068B1FBF0F0010A8DF8CD
:105030000200000C8DF801108DF8000069468B20ED
:1050400000F0EEF91CBD00BFAC0000200000093DDF
:10505000E0B58DF806208DF804008DF807308DF846
:10506000051001A99520042200F0DAF98CBD00009A
:105070007FB5E34D044600208DF80C00CDE901001A
:105080002078A978814202D000F046F821780329DF
:1050900040D8DFE801F0020D1A02667AF12E19D02D
:1050A000F22E21D1062641F2210541F60F5016E0DD
:1050B000207C617C0622E8708DF806008DF80710D0
:1050C000608AADF80800E0891CE0207B01228DF8A1
:1050D00004001BE0022648F205054FF6FF70FFF7BB
:1050E00017FF2846FFF704FF20798DF80B6009228F
:1050F0008DF80600D4F80500CDF80700A07A8DF8E9
:105100000C00608800BA000CADF8040001A98C20E6
:1051100000F086F97FBD00BFE0B5B9498DF8070002
:10512000887020B940F2AC60002100F087F90DF1E1
:1051300007018A20FDF78FFE8CBD00BFAC00002068
:105140000A460146002000F05DB9E0B5FEF7DEFA40
:1051500001380DF107010122B0FA80F040098DF805
:105160000700962000F05CF98CBD0000BCB5A44D92
:105170000446287820B92046FFF7F6FC0120287065
:10518000074A6006E1090023FAF7F2FF00BA042299
:10519000019001A9862000F043F9BCBDAC000020BD
:1051A0000048E801B0B50446FEF7ACFA022805D085
:1051B000012520B90F2CC8BF022500E00225284692
:1051C0002146022200F0C2F82846B0BDE0B58C4965
:1051D0000522FDF7E4FD0DF10501822000F020F924
:1051E0008CBD00BF1CB5044685480521417040F6C2
:1051F000AC00972100F022F9200A0DF105010322ED
:105200008DF807408DF80600200C8DF805008220EF
:1052100000F006F91CBD00BF1CB50A0A8DF8071086
:10522000090C8DF8040006248DF80510010A000C05
:105230008DF8062006228DF803108DF802000DF17E
:105240000201942000F0ECF86D4844701CBD00BFD2
:10525000BCB5044600200025FEF752FA0220FFF7F5
:105260008FFB04F007000DF1070101228DF8070004
:10527000842000F0D5F862484570BCBDE0B58DF8DB
:1052800007000DF107018020FDF7E5FD9DF80710EF
:10529000022000295A4908BF012048708CBD00BF78
:1052A000AC000020E0B58DF807000DF107019F204C
:1052B000FDF7D1FD8CBD012908D110B504460128A8
:1052C00007D10420FFF75CFB022003E00120FEF77A
:1052D00017BA0120022C08BF0320BDE81040FEF7DA
:1052E0000FBA80B501464FF4D860082200F0B2F83A
:1052F000002080BDE0B500F007008DF80710042203
:105300008DF80400080A8DF80600080C8DF80500D9
:1053100001A9972000F084F88CBD0000E0B5384961
:105320000422FDF73CFD0DF10501832000F078F823
:105330008CBD00BFAC000020D1200021002200F075
:105340006FB8D2200021002200F06AB8BCB5144624
:105350000D46012812D104200F2D08BF0620002180
:1053600001220123FFF774FE15F1110FD8BF6FF072
:1053700010050E2DA8BF0E25182118E040F6D80004
:10538000FFF77AFD40F01E0140F6D80000F056F815
:105390000420072100220123FFF75AFE15F1090F0F
:1053A000D8BF6FF00805162DA8BF1625382140F686
:1053B000E70000F043F80DF106018E2002228DF87F
:1053C00007408DF8065000F02BF8BCBD10B5044620
:1053D0000B48807800B110BD4FF4D760FFF74CFD4B
:1053E000C4F3002100F0FE0001444FF4D76000F048
:1053F00025F8E1B240F2B960BDE8104000F01EB8F7
:10540000AC00002010B5FDF7C2FDEFF31084EFF300
:10541000108072B61648FCF739FD84F3108810BD71
:1054200010B5FDF7B4FDEFF31084EFF3108072B602
:105430000F48FCF7C3FB84F3108810BDE0B50346AA
:105440000B488DF807100DF1070219460123FCF7F0
:1054500043FD8CBD10B5FDF79AFDEFF31084EFF31B
:10546000108072B60248FCF737FD84F3108810BD37
:1054700030090020704700002DE9F04F8BB05A48EA
:1054800001F012FADFF8748158A3022000210022F3
:105490000027C0474FF0010B59A302200021002232
:1054A0000297CDE900BBC0475C4C5D4B4FF0FF312C
:1054B0000022009704F12805284601F0F5FA284655
:1054C000C82101F06BFB284601F080FB04F1400588
:1054D000544B4FF0FF3101220097284601F0E4FAC7
:1054E00028464FF4FA7101F059FB284601F06EFB93
:1054F0004D48524D504B4E494E4A44F8580F4B4878
:10550000EE68D5F818A0C4E903212968C4E9013080
:1055100068690A90204688474948B04749A3022055
:1055200000210022C0474CA3022000210022C047D6
:105530007D204EA30021002200900220C0470926B2
:105540004FA30220002100220096C04740F6B83049
:10555000CDE9006BEE694FF0080916210022002307
:10556000CDE904B7CDE9067708900120CDE902978F
:10557000B0470520002109220123CDE9087BCDE9B0
:105580000079CDE9047BCDE90677CDE9020701205A
:10559000D0476A6D0120FF2190470120FAF7B6FE3F
:1055A0000220FAF7B3FE0A988047860D3848FF219B
:1055B00044F84C6CFAF726FE36A3FDF7B6FC0096CD
:1055C000C04754F84C0C696B00F6B8308847344A31
:1055D0000120002101F0D0F9324A022000210BB055
:1055E000BDE8F04F01F0C8B9A50400080A0D504904
:1055F0004E4720504F4E470A0D000000B567000887
:105600004150505F56455253494F4E3D2056255804
:105610002E25582E25580D0A0000000038000020C5
:10562000F1340008A9340008553400083933000863
:10563000FD330008253400087D3400089874000804
:10564000000D99362D2D2D2D2D2D2D2D2D2D2D2D62
:105650002D2D2D0A0D0000004C4F52415F4D4F443F
:10566000554C4154494F4E0A0D0000004C4F5241D9
:105670005F42573D2564206B487A0A0D0000000008
:105680004C4F52415F53463D25640A0D0000000017
:105690002C04002072616E643D25640A0D00000038
:1056A00055350008B5360008FBF7BCBA7CB50F4984
:1056B00004460020CDE9000068464E68D1E9035158
:1056C000043088470090A8470546B047DDE900123E
:1056D00012FA85F20844064913048B42C4BF013014
:1056E000A2F57A7291B2C4E900017CBD4C75000844
:1056F0000000E70310B5C91A029B0024C0E900149A
:10570000D21A1304828004D502F57A72013982809C
:10571000016010BD80B50D48016821F400410160B1
:1057200001F036FA01F098F8094801F0B3F80220C8
:1057300001F0B4F801F0E0F80120012101F0E2F8F5
:1057400001200121BDE8804001F0F2B808000058B6
:10575000755E0008B0B59AB008AC1C21201DFAF7A0
:1057600051FD01A81C21FAF74DFDFBF72FFB1E4848
:105770001E4900250A5822F018020A500122086822
:1057800062F34A200860086800F4C06000904FF09F
:105790000050CDE9102519904FF4003017901820D3
:1057A00016903020CDE91420022013906020129032
:1057B00081200B902420089000984FF000701890E2
:1057C0002046FBF76DFD00B1FEE74F200795CDE9C0
:1057D000035505950221CDE9010501A8FBF7CEFB94
:1057E00000B1FEE71AB0B0BD90FCFFFF0004005806
:1057F000704700005948FCF71FB800BF5748022106
:10580000FBF7F2BF55480021FBF7EEBF53480121DB
:10581000FBF7EABF024651480221FBF7E9BF00BF90
:1058200002464E480021FBF7E3BF00BF02464B484B
:105830000121FBF7DDBF00BF4FF47A71A0FB01012E
:10584000800A40EA8150704780B5FDF70FFA80BDAD
:105850000320704770B5044625484FF47A710568F7
:1058600040F2FF30A8434843860AFFF7C7FFE943E9
:105870002680890A41EA805070BD00BF2F484068E9
:10588000704700BF1A482D4900684968C043401A54
:10589000704700BF29480078012811BF0020144834
:1058A0000068C043704700BF70B5244D2878B0B978
:1058B0002A4C4FF0FF362663FDF708F900F040F858
:1058C000FDF77FFA20462663FBF798FF0020FFF7DD
:1058D000A1FF0748012100682970C04368600020CB
:1058E00070BD00BF024815490068C043486070475A
:1058F00008280040B0B58CB001AD044628212846E8
:10590000FAF780FC00F01CF84FF4807100200122AF
:105910000B914FF000510890CDE906010748294648
:1059200040682044C04302900C48FCF78BF808B153
:10593000FAF748FE00200CB0B0BD00BF28000020E0
:1059400010B50548054C01210160FDF73AFA4FF00A
:10595000FF302063002010BD5C280040F8080020C4
:1059600070B5A04A0368904210D0B0F1804F03D1C7
:105970004C6823F070032343B0F1804F0AD09A4C57
:10598000A04207D0994CA04204D007E04C6823F015
:1059900070032343CC6823F4407323434E6923F000
:1059A00080030C688D68334390420360C562846253
:1059B00005D08D4A904202D08C4A904201D10969AB
:1059C00001630121416170BD10B501F01F01012388
:1059D000046A8B4002FA01F124EA03030362026ABB
:1059E0001143016210BD0000F0B5026A7D4E22F045
:1059F000010202620A688B68046A456824F00204A6
:105A000023438469B04205D0774FB84202D0774F24
:105A1000B84207D1CF6823F00C0327F004073B43BB
:105A2000B04205D0704EB04202D0704EB04205D1A7
:105A3000D1E9056725F4407535433D434560324D56
:105A40002C4022438261496841630362F0BD00BF7C
:105A5000F0B5026A634E22F01002FDF7F6FB24F067
:105A6000200444EA0313846906D05F4EB0420BD091
:105A70005E4EB04208D00FE0CE686FF0400723F0D2
:105A8000C00307EA06163343D1E9056725F44065EC
:105A900045EA860545EA870545602F4D2C4044EAD6
:105AA00002228261496881630362F0BDF0B5026A37
:105AB0004C4E22F48072FDF7C8FB24F4007444EAD3
:105AC0000323C46906D0484EB0420BD0474EB042C3
:105AD00008D00FE0CE6840F2FF4723F4406336025F
